:020000040800F2
:10000000F0040020D10000081D1700088513000827
:1000100000000000000000000000000000000000E0
:100020000000000000000000000000002117000890
:1000300000000000000000001F1700082317000840
:10004000E3000008E3000008E3000008E300000804
:10005000E3000008E3000008E3000008E3000008F4
:10006000E3000008E3000008E3000008E3000008E4
:10007000E3000008E3000008E3000008E3000008D4
:10008000E3000008E3000008E3000008E3000008C4
:10009000E3000008E3000008E3000008E3000008B4
:1000A000E3000008E3000008E3000008E3000008A4
:1000B000E3000008E3000008E30000080348854669
:1000C00000F09AF80048004775210008F00400206D
:1000D0000448804704480047FEE7FEE7FEE7FEE7E6
:1000E000FEE7FEE79D170008BD00000830B50B468F
:1000F000014600202022012409E00D46D5409D4202
:1001000005D31D469540491B254695404019154687
:10011000521E002DF1DC30BDF0B51FB406460020A4
:1001200082B005464024019100901BE001992246CF
:100130000F46304600F04FF8049A059B801A99410B
:1001400010D310461946224600F035F8361A8F4172
:100150000197224601200021009F00F02CF838185A
:100160004D4100902046641E0028DFDC019B009872
:100170002946324607B0F0BDD2B201E00270401C01
:10018000491EFBD270470022F6E710B513460A4617
:1001900004461946FFF7F0FF204610BD30B504466F
:1001A0000020034600E05B1C934203D2E05CCD5C80
:1001B000401BF8D030BD10B5202A04DB0146203AA0
:1001C0009140002010BD914020239C1A0346E3403B
:1001D0001943904010BD10B5202A04DB0846203A90
:1001E000D040002110BD0B46D340D0402024A21A9D
:1001F00091400843194610BD064C0125064E05E006
:10020000E36807CC2B430C3C98471034B442F7D337
:10021000FFF758FF20230008402300087047000024
:1002200070B5044600F0AEF80546601C02D00448E4
:100230004068241800F0A6F8401BA042FAD370BD15
:1002400004000020F0B5002388E001229A40944683
:10025000144022007ED04C68022C01D0122C0CD10C
:10026000DC08A40027183C6A5D07ED0E0F26AE409F
:10027000B4430E69AE4026433E6205685E00032427
:10028000B4400F79A543BF07BF0FB7402F430760A6
:100290004D68012D05D0022D03D0112D01D0122D56
:1002A0000ED18568CF68A543B7402F438760476864
:1002B0006546AF430D79ED06ED0F9D403D4345602A
:1002C000C568A5438C68B4402C43C4604C68E40006
:1002D00043D59D08244CAD002F193C6E9D07EE0EB2
:1002E0000F25B540AC4305252D07A84201D10025B7
:1002F0000FE01E4DA84201D101250AE01C4DA84285
:1003000001D1022505E01B4DA84201D1032500E0E3
:100310000525B5402543144C3D66134D80352E68A8
:100320004F689643FF0300D516432E606E684F68F2
:100330009643BF0300D516436E6025684E6895430B
:10034000F60200D51543256065684E689543B602F0
:1003500002D500E001E0154365605B1C0A681446A5
:10036000DA4000D071E7F0BD0018024000040050F0
:1003700000080050000C0050002A01D08161704735
:1003800081627047014880687047000004000020C7
:1003900070B5024640325378202B1CD11378012BC4
:1003A00019D00123137024245470046825689D43D8
:1003B0002560046825681E03B54325600468256828
:1003C0000D432560006801681943016020205070CA
:1003D0000020107070BD022070BD70B50246403222
:1003E0005378202B1BD11378012B18D001241470C3
:1003F0002423537003681D68A5431D6005682B689E
:100400000F263602B34309021943296000680168C8
:1004100021430160202050700020107070BD022028
:1004200070BD000070B5040006D0254640356878E0
:100430000026002802D005E0012070BD2E70204665
:1004400000F09AF924206870206801684908490082
:1004500001600F21606809068843216808612168EE
:100460008A680120C00382438A60E1680129A1688B
:1004700008D021229202114322689160E16802298A
:1004800002D005E00143F7E701212268C90251606B
:1004900021684A680F4B1A434A602168CA68824340
:1004A000CA60616920690843A1690902084321689B
:1004B000C860216AE0690843216808602068016813
:1004C0000122114301606664202068702663AE70CB
:1004D000002070BD00800002FFB50546044640358F
:1004E000687883B0202875D10C98002814D00D9816
:1004F000002811D0287801286CD001202870FFF73F
:1005000041FF0746012200901923D103204600F045
:10051000F7FF002874D103E00120400260646FE01F
:10052000222068704020A870002666640C986062E3
:100530000D98608566630E980090019704A90EC916
:10054000204600F069FF002801D02E7058E0618D30
:100550003448FF2905D9FF22228501231B0600907C
:1005600006E0618D21850090208D0123C2B25B06DB
:100570002046049900F0B0FF009700220421204695
:100580000E9B00F0BDFF00283AD12068406A616AE6
:100590000870606A401C6062208D401E81B2218517
:1005A000608D401E6085608D00281FD000291DD100
:1005B00000970022802120460E9B00F0A1FF00281A
:1005C0001ED1608DFF2806D9FF22228501231B063C
:1005D000009607E024E0608D20850096208D0123A1
:1005E000C2B25B062046049900F076FF608D0028B9
:1005F000C2D13A4620460E9900F0A9FF002802D049
:10060000012007B0F0BD20682021C1612068426848
:10061000054B1A4042606970AE702E700020F0E702
:100620000220EEE70024008000E800FEFFB505464A
:1006300004464035687883B0202872D10C98002891
:1006400014D00D98002811D02878012869D00120F5
:100650002870FFF797FE0746012200901923D10367
:10066000204600F04DFF002871D103E00120400238
:1006700060646CE0212068704020A87000266664E9
:100680000C9860620D98608566630E9800900197E3
:1006900004A90EC9204600F0EFFE002801D02E70FC
:1006A00055E0608DFF2805D9FF22228501231B0616
:1006B000009606E0608D20850096208D0123C2B251
:1006C0005B062046049900F007FF3A4620460E9943
:1006D00000F063FF00283AD1606A216800788862E0
:1006E000606A401C6062608D401E6085208D401EE7
:1006F00080B22085618D00291FD000281DD1009770
:100700000022802120460E9B00F0FAFE00281ED118
:10071000608DFF2806D9FF22228501231B06009643
:1007200007E024E0608D20850096208D0123C2B271
:100730005B062046049900F0CFFE608D0028C4D1EE
:100740003A4620460E9900F002FF002802D0012010
:1007500007B0F0BD20682021C16120684268054BC8
:100760001A4042606970AE702E700020F0E70220DF
:10077000EEE7000000E800FE10B586B00446142144
:100780006846FFF700FD1149206888421CD1104CD3
:10079000616B022001436163616B01400591C020E0
:1007A00000901220019000200290039006200490F7
:1007B00069460848FFF746FDE16B0120400501430B
:1007C000E163E16B0140059106B010BD00540040AB
:1007D00000100240000400500248816842688918F5
:1007E000816070470400002010B5084800240168AB
:1007F000821511430160204600F00AF8002801D05C
:10080000012401E000F028F8204610BD002002403D
:1008100070B50F4E002471680546002915D07D2063
:10082000C000FFF763FC01460A480068FFF75EFC62
:1008300000F048FC002808D1042D06D200222946E9
:10084000401E00F027F8356000E00124204670BD0E
:10085000040000201000002008B50C4801680122A7
:100860001143016000681040009008484038C26B96
:1008700001040A43C263C06B03220840009004488D
:10088000520201681143016008BD0000401002409F
:100890000000014010B501F0C5FB10BD10B50F4CB4
:1008A000216803225202914301432160C11FFF3995
:1008B000FA390ED10A480621006848430949FFF772
:1008C00015FC401C02E0002805D0401E6169490566
:1008D000F9D4002010BD032010BD000000700040BE
:1008E0001000002040420F00FEB5044600680027BB
:1008F000704D714E800355D500200090F06BC00004
:1009000007D4F16BA8050143F163F16B01400120AD
:1009100000906A480168821511430160FFF732FDBB
:10092000019005E0FFF72EFD0199401A022825D815
:1009300062480068C005F5D5E8690321090208404E
:100940000FD0216B81420CD0E86903210902EA69CA
:100950008843012109040A43EA61EA698A43EA619A
:10096000E861C0070FD0FFF70DFD019008E0FFF729
:1009700009FD0199411A5248814201D9032709E032
:10098000E8698007F3D5E869032109028843216BF0
:100990000843E8610098002804D0F16B01200007AB
:1009A0008143F1632078C00705D0686961688008D9
:1009B0008000084368612078800705D568690C21AC
:1009C0008843A168084368612078800606D5686975
:1009D000032189028843E168084368612088800513
:1009E00006D56869032189048843A16908436861C1
:1009F0002088400506D56869032109058843E16917
:100A0000084368612078400606D568690321090318
:100A10008843216908436861208840040ED56869CD
:100A2000216A80008008084368610121206A8907E3
:100A3000884203D1F06889130843F06020680003FE
:100A400005D5686940218843616A08436861206868
:100A500081021C480BD569698210A36A914319432E
:100A60006961A16A914202D1F1680143F160216894
:100A700049020AD56969E26A814311436961E16A01
:100A8000814202D1F1680143F160208800050FD551
:100A9000686903218903884361690843686101210A
:100AA00060698903884203D1F06889000843F060D7
:100AB0003846FEBD40100240001002400070004069
:100AC0008813000000000001F8B50F46060043D06F
:100AD0004D4D28684007400FB84213D22868C0081F
:100AE000C00038432860FFF74DFC044605E0FFF7DF
:100AF00049FC011B4548814261D828684007400FE6
:100B0000B842F4D13068424C81070DD5400704D576
:100B1000A068072109030843A060A0680F2109020B
:100B20008843B1680843A0603078C00732D070684D
:100B300001280AD002280BD000280FD034494031B8
:100B400003280ED0C969890704E02168890301E000
:100B500021688901002906DB0120F8BD21684905CB
:100B6000F8E7096AEFE7A168C908C9000143A16075
:100B7000FFF708FC009006E0FFF704FC0099411A1B
:100B8000224881421BD8A068382108407168C900FA
:100B90008842F1D128684007400FB84217D91A4857
:100BA0000168C908C90039430160FFF7EBFB05463E
:100BB00007E0FFF7E7FB411B1448814201D90320FE
:100BC000F8BD114800684007400FB842F1D13078B5
:100BD000400706D5A068072109038843F168084348
:100BE000A06000F031F8A1683C2289091140094A4F
:100BF000515CC906C90EC84007490860074800682B
:100C0000FFF706FEF8BD0000002002408813000038
:100C100000100240C0220008100000200400002044
:100C20000648074900688968064A4904490F89004F
:100C3000515CC906C90EC840704700001000002072
:100C4000001002400023000810B5204CA068204A84
:100C50008006400F16D0A0688006410F5010012971
:100C60000FD0A1688906490F022912D0A06880061A
:100C7000400F042823D0A0688006400F032821D00D
:100C8000002010BD206801218004400F81401046E3
:100C900012E0E1688B07E1689B0F4906490F491C88
:100CA000032B00D01046FFF721FAE1684904490EF2
:100CB0004843E168490F491CFFF718FA10BD0120AD
:100CC000C00310BD7D20000210BD000000100240D6
:100CD0000024F400F8B504007ED020783827C0073F
:100CE000EF4D002846D0A868E96838408907890F89
:100CF000102802D008280BD001E0032908D00120D9
:100D00006268000482420AD129680143296015E023
:100D1000286880032ED560680028DDD02AE00523EE
:100D200001211B0489049A422A6802D10A432A60DD
:100D3000EAE782432A6028688843286060680028C0
:100D40000CD0FFF71FFB064604E0FFF71BFB801BE0
:100D5000642873D828688003F7D50BE0FFF712FBEF
:100D6000064604E0FFF70EFB801B6428F1D82868D4
:100D70008003F7D42078800769D5A868E9683840EF
:100D80008A070721920FC902102802D0002813D029
:100D900001E0022A10D0E068002846D02868884385
:100DA0002169084328602868FF2101310843286031
:100DB000FFF7E8FA06462CE02A68520502D5E268F9
:100DC000002A89D06A687F231B029A4363691B0249
:100DD0001A436A60002800E08DE00ED1286888433D
:100DE000216908432860286801218004400F814060
:100DF000AC48FFF77BF9AC490860AC480068FFF7E6
:100E000007FD002877D122E0FFF7BCFA801B0228FB
:100E10009FD828684005F7D568687F210902884374
:100E2000616909020843686011E02968FF20013008
:100E300081432960FFF7A6FA064605E098E0FFF730
:100E4000A1FA801B022884D828684005F7D42078AE
:100E5000974E00072ED5A8688006400F03280AD0B9
:100E6000A0690028306A16D0012108433062FFF7DC
:100E700089FA07460BE0306A80071BD5A069002875
:100E80009FD017E0FFF77EFAC01B022870D8306AA7
:100E90008007F7D50EE0400840003062FFF772FA95
:100EA000074604E0FFF76EFAC01B022860D8306ADC
:100EB0008007F7D4207840076CD5A8680027800603
:100EC000400F042818D0E86BC00008D4E96B01205B
:100ED00000070143E963E96B014001270091754870
:100EE0000168C90519D40168821511430160FFF733
:100EF00049FA00900DE083E0F06980074AD5A068C8
:100F000000287DD046E0FFF73DFA0099401A0228FC
:100F10002ED868480068C005F5D5A168012910D011
:100F200004200529F16911D049084900F161F169EE
:100F30008143F161A068002816D0FFF723FA0090E2
:100F40000EE0F06901210843F061F3E70143F1612C
:100F5000F7E7FFF717FA0099411A574881426FD80F
:100F6000F0698007F5D50EE0FFF70CFA009007E076
:100F700066E0FFF707FA0099411A4F4881425FD8AF
:100F8000F0698007F5D4002F04D0E86B0121090730
:100F90008843E863E06900287FD0A9688906490F83
:100FA000022953D001263606022828680DD0B04306
:100FB0002860E86880088000E860E8683F490840E9
:100FC000E860FFF7DFF904463CE0B0432860FFF734
:100FD000D9F9074604E0FFF7D5F9C01B02282FD83E
:100FE00028688001F7D4616A206AA26A0843E16A2E
:100FF000120211430843216B0843616B084300E070
:1010000049E0E9682E4A11400843E8602868304307
:101010002860E868012109070843E860FFF7B2F992
:10102000044604E0FFF7AEF9001B022808D8286840
:101030008001F7D531E0FFF7A5F9001B022801D99F
:101040000320F8BD28688001F5D426E00128F8D0F7
:10105000E868226A8107890F91421CD17021626A77
:101060000140914217D17F21A26A09020140120278
:10107000914210D11F214904E26A014091420AD1F4
:1010800007214906226B0140914204D1400F616B58
:101090004007884201D00120F8BD0020F8BD0000C3
:1010A000001002400024F400100000200400002082
:1010B000401002400070004088130000FFFFFEEE69
:1010C0008C80C111094910B5401E884201D9012008
:1010D00010BD074C60610321081F00F0A3FF002032
:1010E000A06107202061002010BD0000FFFFFF006D
:1010F00000E000E030B5014660310A7F012A18D0D7
:1011000001220A77242302468032144613600368C2
:101110001A681D686D086D001D6001235B079A4306
:101120000023436600680260202020600B77184689
:1011300030BD022030BDF8B5054604466035287F35
:1011400001281DD001202877242220468030074620
:101150000260206806680268520852000260206837
:10116000826807235B069A430A438260204600F0A8
:101170001DFB206806602020386000202877F8BD1D
:101180000220F8BDF8B5054604466035287F0128E1
:101190001CD0012028772422204680300746026098
:1011A000206806680268520852000260206882685F
:1011B000D200D2080A438260204600F0F7FA206885
:1011C00006602020386000202877F8BD0220F8BD96
:1011D00070B5040006D0204680300546006800281F
:1011E00002D007E0012070BD00217C20015520467F
:1011F00000F026F82420286020680168490849008A
:101200000160204600F09AFB0128ECD0A06A00287B
:1012100002D0204600F0FAFA206841680922D20282
:1012200091434160206881682A229143816020684F
:101230000168012211430160204600F04DFB70BDA2
:1012400010B586B0044614216846FEF79CFF13498A
:10125000206888421FD112480268012189030A438D
:1012600002600068084005900D484038426B01213B
:101270000A434263406B04910840059003204002FA
:101280000090022001900020029003900520694602
:101290000007FEF7D7FF06B010BD00000038014080
:1012A00040100240FFB5074604468037386885B0D5
:1012B0000D46202864D1002D0CD00798002809D0B5
:1012C0000120A1680003814207D12069002804D1D0
:1012D000E80702D0012009B0F0BD2046603002903E
:1012E000007F01284CD00298012101770020B860CE
:1012F00021203860FFF746F80190264640360798CF
:10130000B0820798F0820120A1680003814202D1D7
:101310002069002802D00395002515E000200390E5
:1013200012E000228021204600F038FE002818D16B
:101330000398002817D02168007888620398401C21
:101340000390F08A401EF082F08A019B00280898E2
:101350000090E6D100224021204600F01FFE002828
:1013600008D00320B7E728882168C005C00D88622F
:10137000AD1CE6E720203860029900200877AAE734
:101380000220A8E7FEE701688A69D243920701D4E8
:1013900000228A6200688169C943C90703D0816954
:1013A0000122114381617047F7B5044600680E467B
:1013B0008069C043C0062BD42027254640352068CD
:1013C0008069C043800612D5701CF8D0FEF7DAFFA2
:1013D0000299401AB04201D8002EF0D1606C384317
:1013E00060646F700020A87028700120FEBD216825
:1013F0001020C8612068C7612046FFF7C4FF20683D
:101400004168044A11404160606C04210843E7E7E9
:101410000020FEBD00E800FEF8B50446164615485B
:101420001D46DAB20090079F0023204600F054F8D2
:101430003A462046069900F0B0F8002818D1284610
:10144000F5B2012809D02168300A88623A46204660
:10145000069900F0A2F800280AD12068856200975A
:10146000002240212046069B00F04AF8002800D0C8
:101470000120F8BD00200080F8B504461646154846
:101480001D46DAB2C3020090079F204600F024F800
:101490003A462046069900F080F8002818D12846E0
:1014A000F5B2012809D02168300A88623A46204600
:1014B000069900F072F800280AD12068856200972A
:1014C000002280212046069B00F01AF8002800D058
:1014D0000120F8BD00200080F0B50668059C756805
:1014E000064F600D384385438805800D110408437D
:1014F0001843204305437560F0BD0000FF63FF0300
:10150000F8B51D4617460E46044609E0681C07D08C
:10151000FEF738FF0699401AA8420BD8002D09D0D3
:1015200020688169304688430FD00020B842EDD052
:101530000020F8BD616C202001436164403460707C
:101540000020A07020700120F8BD0120EEE770B5EA
:1015500016460D4604460FE0324629462046FFF760
:1015600023FF002801D0012070BDFEF70BFF801B78
:10157000A84208D8002D06D020688069C0438006A4
:10158000EAD4002070BD616C2020014361644034C6
:1015900060700020A0702070E5E770B516460D461B
:1015A000044611E0324629462046FFF7FDFE00289A
:1015B00001D0012070BD681C06D0FEF7E3FE801B41
:1015C000A84208D8002D06D020688069C043800753
:1015D000E8D4002070BD616C202001436164403478
:1015E00060700020A0702070E3E7000070B586B046
:1015F00014216846FEF7C7FD1648426B04210A43D2
:101600004263426B0A400592416B202421434163AF
:10161000416B21400591416B012529434163416B99
:1016200029400591426B02210A434263406B0A4EF6
:1016300008400590002220213046FEF79DFE002044
:10164000039001956946029500943046FEF7FAFD35
:1016500006B070BD001002400004005010B51348E1
:1016600011490160124941600021816001614161BD
:1016700081610122C161C2600162FEF7D3FE0028D0
:1016800001D0FEF7CBFD00210848FEF781FE0028BF
:1016900001D0FEF7C3FD00210448FEF79EFE00289E
:1016A00001D0FEF7BBFD10BD005400401800002023
:1016B000BC7D701010B5184816490160E12149023F
:1016C000416000218160C16001618161C16101628D
:1016D0000C22416242618162FFF77AFD002801D04D
:1016E000FEF79CFD00210C48FFF74CFD002801D0BF
:1016F000FEF794FD00210848FFF71DFD002801D0EA
:10170000FEF78CFD0448FFF7F5FC002801D0FEF73A
:1017100085FD10BD0038014064000020704770470F
:10172000704710B5FFF758F810BD30B59FB038219D
:101730006846FEF728FD00241B941C941D94342158
:101740000EA81E94FEF71FFD01204002FFF7A6F829
:1017500001200090000401900320089010200A90BE
:10176000400302250B90079500020C9000010D909C
:1017700009946846FFF7AEFA07201B901D940221DA
:101780001C951E941BA8FFF79FF941200E900F9403
:1017900012940EA8FFF7A8F81FB030BD012002492F
:1017A000C00688607047000000ED00E0F0B513A1AE
:1017B00006C985B00192009112A206CA0392029155
:1017C0000446416E4034002915D000688168806865
:1017D00009014D0F400F02AE315C6F46385CC0000E
:1017E000FEF784FC6085785D715DC000FEF77EFCCD
:1017F000208505B0F0BD01206085F9E701010103F6
:1018000007010000080402040801010110B5018D60
:10181000C90707D001684A6801235B049A43C36A79
:101820001A434A60018D890707D501684A68012378
:101830001B049A43036B1A434A60018D490707D57D
:1018400001684A6801239B049A43436B1A434A6028
:10185000018D090707D501684A680123DB039A4314
:10186000836B1A434A60018DC90607D502689168E7
:1018700001231B039943C36B19439160018D8906B2
:1018800007D501688A6801235B039A43036C1A43F6
:101890008A60018D490612D503685A68012109053D
:1018A000446C8A4322435A60426C8A4207D10268E0
:1018B000516803235B059943836C19435160018D83
:1018C000090607D501684A680123DB04C06C9A4306
:1018D00002434A6010BD0000FEB505460026803573
:1018E0000446AE60FEF74EFD019020680068124F7E
:1018F000000709D501210097002249052046019BD8
:1019000000F04CFB00280DD12068006840070BD583
:1019100001210097002289052046019B00F03EFB33
:10192000002801D00320FEBD2020286068606034BC
:1019300026770020FEBD0000FFFFFF01F8B504463A
:10194000036880682269E6691043626900253243B2
:101950001043626EF24902431868F24E3040104361
:1019600018602268506803231B039843E3681843F8
:1019700050602268A0698A4201D0236A18439368A4
:10198000E94E3340034393602068C26A636A1209D8
:1019900012011A43C262E54B2068E54A98420AD117
:1019A00052699207920F39D0012A3BD0022A37D0D0
:1019B000032A25D122E0DF4B98420AD152690C2339
:1019C0001A402BD0042A2DD0082A29D00C2A17D14E
:1019D00014E0D94B984221D0D84B98421ED088426F
:1019E0000ED1536903229202134017D001229202B2
:1019F0009B1A17D09B1A13D0934201D1082600E0FE
:101A00001026FF27013788426FD1002E0CD0022EFE
:101A10003BD0042E7CD0082E69D182E00026F0E76E
:101A20000226EEE70426ECE7FFF7FAF872E002215F
:101A300029E0022812D0032812D0042812D0052849
:101A400012D0062812D0072812D0082812D0092850
:101A500012D00A2812D00B2814D111E0042112E070
:101A6000062110E008210EE00A210CE00C210AE01A
:101A7000102108E0202106E0402104E0802102E05E
:101A8000394600E0012110461AE0606A002815D0AE
:101A9000012824D0022824D0032824D0042827D0C9
:101AA000052827D0062827D0072827D0082827D0A0
:101AB000092827D00A2827D00B2827D00121A048A1
:101AC000FEF714FB002860D0616800914A00891875
:101AD000814259D800990903814255D356E0022129
:101AE000EDE70421EBE70621E9E73AE110E04BE0FE
:101AF0000821E4E70A21E2E70C21E0E71021DEE714
:101B00002021DCE74021DAE78021D8E73946D6E713
:101B1000FFF79AF80246606A0028B3D0012888D1FE
:101B200085E7606A002815D0012817D0022817D051
:101B3000032817D0042817D0052817D0062817D057
:101B4000072817D0082817D0092817D00A2817D037
:101B50000B2817D001210120C003B1E70221FAE7C9
:101B60000421F8E70621F6E70821F4E70A21F2E765
:101B70000C21F0E71021EEE72021ECE74021EAE715
:101B80008021E8E73946E6E70125DDE1002E31D086
:101B9000022E76D0042E75D0082EF5D1606A00286A
:101BA00015D001286FD002286ED003286DD00428EC
:101BB0006CD005286BD006286AD0072869D0082881
:101BC00068D0092867D00A287ED00B2800D00127CA
:101BD000002601203A463346C0030021FEF79CFA56
:101BE000020E0902114302020098400810187141C8
:101BF000009A3CE0FFF714F885E0012815D0022890
:101C000015D0032815D0042815D0052815D006288E
:101C100015D0072815D0082815D0092815D00A286E
:101C200015D00B2814D0012712E0022710E004275A
:101C30000EE006270CE008270AE00A2708E00C2738
:101C400006E0102704E0202702E0402700E080277C
:101C5000002608463A4633463146FEF75DFA020E44
:101C600009021143626803025008181871410023E9
:101C7000FEF752FA03210902421A32498A426FD909
:101C800082E709E03DE043E044E045E046E05BE018
:101C90005CE05DE05EE05FE0606A002817D001284C
:101CA0001BD002281BD003281BD004281BD00528DA
:101CB0001BD006281BD007281BD008281BD00928BA
:101CC0001BD00A281BD000E048E00B2800D00127D9
:101CD00000263A4633461A487FE70227F8E70427EA
:101CE000F6E70627F4E70827F2E70A27F0E70C27CC
:101CF000EEE71027ECE72027EAE74027E8E7802710
:101D0000E6E7FEF7A1FF0146606A00288BD074E782
:101D100002275DE704275BE7062759E7082757E70F
:101D200000800040F369FFCFFFF4FF11003801404D
:101D3000401002400044004000480040004C004079
:101D40000024F400FFFC0F000A2741E70C273FE7BF
:101D500010273DE720273BE7402739E7802737E773
:101D6000F0E00122E069D20390426ED1002E06D04D
:101D7000022E35D0042E7AD0082E81D17AE0FEF7DB
:101D80004FFF76E0012815D0022815D0032815D082
:101D9000042815D0052815D0062815D0072815D0F9
:101DA000082815D0092815D00A2815D00B2814D0DA
:101DB000012712E0022710E004270EE006270CE0BE
:101DC00008270AE00A2708E00C2706E0102704E0AD
:101DD000202702E0402700E08027394610461BE01C
:101DE000606A002815D001282BD002282BD00328A8
:101DF0002DD004282DD005282DD006282DD0072839
:101E00002DD008282DD009282DD00A282DD00B2818
:101E100000D0012739465F48FEF768F96168400045
:101E20004A088018FEF762F980B201465A4A103912
:101E3000914200D9A8E6511C01400007400F084319
:101E400080E00227E6E70427E4E717E00FE0062733
:101E5000E0E70827DEE70A27DCE70C27DAE71027A8
:101E6000D8E72027D6E74027D4E78027D2E7FEF738
:101E7000EBFE0246606A00289AD083E7002E06D067
:101E8000022E35D0042E7ED0082ED3D17EE0FEF770
:101E9000C7FE7AE0012815D0022815D0032815D0F6
:101EA000042815D0052815D0062815D0072815D0E8
:101EB000082815D0092815D00A2815D00B2814D0C9
:101EC000012712E0022710E004270EE006270CE0AD
:101ED00008270AE00A2708E00C2706E0102704E09C
:101EE000202702E0402700E08027394610461BE00B
:101EF000606A002815D0012830D0022830D003288D
:101F000030D0042831D0052831D0062831D0072818
:101F100031D0082831D0092831D00A2831D00B28F7
:101F200000D0012739461B48FEF7E0F861684A08EF
:101F30008018FEF7DBF880B20146174A103991424B
:101F400000D921E62168C860204601214030418542
:101F500001850020E06620672846F8BD0227E1E7FA
:101F60000427DFE70627DDE70DE00827DAE70A2781
:101F7000D8E70C27D6E71027D4E72027D2E7402759
:101F8000D0E78027CEE7FEF75FFE0246606A0028B2
:101F900096D07FE70024F400EFFF0000FFB581B08A
:101FA00017460E4604460A9D09E0681C07D0FEF756
:101FB000E9F90499401AA8420CD8002D0AD02068EB
:101FC000C169304688431AD00020B842EDD00020C5
:101FD00005B0F0BD20680168FF22A1329143016085
:101FE00020688168490849008160202120468030AE
:101FF000016041600020603420770320E8E7012081
:10200000E3E700000FB410B503A9044B044A02989B
:1020100000F039F810BC08BC04B01847592100087A
:10202000140000208307FF22DB0E9A408907090E67
:102030009940002808DB830809489B001B18186892
:1020400090430843186070470007000F0838830862
:1020500004489B001B18D86990430843D861704717
:1020600000E400E000ED00E002E008C8121F08C133
:10207000002AFAD170477047002001E001C1121F09
:10208000002AFBD17047FFB581B00546002706E066
:1020900025280AD0049A039990476D1C7F1C287844
:1020A0000028F5D1384605B0F0BD002269786D1CD6
:1020B00010462E2913D1697804226D1C2A2909D1D2
:1020C00002996D1C01C9029109E00A235843303876
:1020D00008186D1C29780B46303B092BF5D92B7855
:1020E000002BDFD0632B07D0732B10D0049A184637
:1020F000039990477F1C2DE002996C460B78237062
:10210000091D0291002161706E46012104E00299CF
:1021100040C902910021C94352070AD5002400E0BA
:10212000641C84420DDA8C42FADB325D002AF7D15E
:1021300007E0002400E0641C8C42FCDB305D0028DA
:10214000F9D13F1904E03078049A761C039990473E
:10215000641EF8D26D1CA2E713B5044B0122694638
:102160000348FFF79FF800981CBD0000FFFF000028
:10217000640000208CB0FEF737FBFFF7D6FAFFF7BC
:1021800035FAFFF76BFAFFF795FA24A30FCB0A9302
:1021900007AB07C3002220212448FEF7EDF807A86B
:1021A00010240F26009001230022A0210196029402
:1021B0001F48FEF73BFA00282BD01EA0FFF722FF96
:1021C0000520FEF72DF803AD01230022A1211848B8
:1021D000019600950294FEF77FF91AA0FFF712FF0F
:1021E000224C0020208080B2295C21A0FFF70AFF4A
:1021F0002088401C80B220800F28F4D30F2203A92E
:1022000007A8FDF7CBFF002805D01AA0FFF7FAFEBC
:10221000FEE71FA0D2E723A0F8E700005468697327
:10222000206973206120746573742E0000040050CF
:10223000180000205772697465206661696C6564D6
:102240002E0D0A00546865206461746120696E2057
:102250007468652063686970206973206173206603
:102260006F6C6C6F77733A0D0A000000000000205D
:10227000256300000D0A56657269666963617469B9
:102280006F6E206661696C65642E0D0A00000000A7
:102290005772697465207375636365656465642E40
:1022A0000D0A00000D0A56657269666963617469FA
:1022B0006F6E207375636365656465642E0D0A0037
:1022C000000000000000000000000000000000000E
:1022D00000000000000000000000000000000000FE
:1022E00001000000020000000300000004000000E4
:1022F00006000000070000000800000009000000C0
:1023000000000000000000000000000000000000CD
:1023100001000000020000000300000004000000B3
:10232000402300080000002018000000682000087A
:102330005823000818000020D80400007820000866
:102340000000000004000000010000000000000088
:082350000024F400000000006D
:04000005080000BD32
:00000001FF
