:020000040800F2
:1000000030050020D1000008ED1600085115000849
:1000100000000000000000000000000000000000E0
:10002000000000000000000000000000411900086E
:100030000000000000000000EF160008431900084F
:10004000E3000008E3000008E3000008E300000804
:10005000E3000008E3000008E3000008E3000008F4
:10006000E3000008E3000008E3000008E3000008E4
:10007000E3000008E3000008E3000008E3000008D4
:10008000E3000008E3000008E3000008E3000008C4
:10009000E3000008E3000008E3000008E3000008B4
:1000A000E3000008E3000008E3000008E3000008A4
:1000B000E3000008E3000008E30000080348854669
:1000C00000F08EF800480047D125000830050020D8
:1000D0000448804704480047FEE7FEE7FEE7FEE7E6
:1000E000FEE7FEE7B9190008BD00000830B50B4671
:1000F000014600202022012409E00D46D5409D4202
:1001000005D31D469540491B254695404019154687
:10011000521E002DF1DC30BDF0B51FB406460020A4
:1001200082B005464024019100901BE001992246CF
:100130000F46304600F042F8049A059B801A994118
:1001400010D310461946224600F028F8361A8F417F
:100150000197224601200021009F00F01FF8381867
:100160004D4100902046641E0028DFDC019B009872
:100170002946324607B0F0BDD2B201E00270401C01
:10018000491EFBD270470022F6E710B513460A4617
:1001900004461946FFF7F0FF204610BD10B5202A8F
:1001A00004DB0146203A9140002010BD91402023FD
:1001B0009C1A0346E3401943904010BD10B5202A15
:1001C00004DB0846203AD040002110BD0B46D34046
:1001D000D0402024A21A91400843194610BD0000C7
:1001E000064C0125064E05E0E36807CC2B430C3C8A
:1001F00098471034B442F7D3FFF764FF6026000835
:100200008026000870470000F0B5002388E0012236
:100210009A409446144022007ED04C68022C01D0B3
:10022000122C0CD1DC08A40027183C6A5D07ED0EE7
:100230000F26AE40B4430E69AE4026433E620568C9
:100240005E000324B4400F79A543BF07BF0FB7403A
:100250002F4307604D68012D05D0022D03D0112DCD
:1002600001D0122D0ED18568CF68A543B7402F432A
:10027000876047686546AF430D79ED06ED0F9D40F9
:100280003D434560C568A5438C68B4402C43C460B9
:100290004C68E40043D59D08244CAD002F193C6EFA
:1002A0009D07EE0E0F25B540AC4305252D07A8424E
:1002B00001D100250FE01E4DA84201D101250AE021
:1002C0001C4DA84201D1022505E01B4DA84201D1D9
:1002D000032500E00525B5402543144C3D66134D2C
:1002E00080352E684F689643FF0300D516432E6075
:1002F0006E684F689643BF0300D516436E6025684D
:100300004E689543F60200D51543256065684E6832
:100310009543B60202D500E001E0154365605B1C21
:100320000A681446DA4000D071E7F0BD00180240B8
:100330000004005000080050000C0050002A01D0BA
:100340008161704781627047014880687047000092
:10035000080000200248816842688918816070475F
:100360000800002010B508480024016882151143D8
:100370000160204600F00AF8002801D0012401E0C5
:1003800000F028F8204610BD0020024070B50F4E46
:10039000002471680546002915D07D20C000FFF7B4
:1003A000A5FE01460A480068FFF7A0FE00F070FFB6
:1003B000002808D1042D06D200222946401E00F054
:1003C00027F8356000E00124204670BD08000020B9
:1003D0001400002008B50C48016801221143016097
:1003E00000681040009008484038C26B01040A437E
:1003F000C263C06B032208400090044852020168A7
:100400001143016008BD000040100240000001409F
:1004100010B501F029FF10BD10B50F4C2168032263
:100420005202914301432160C11FFF39FA390ED1B5
:100430000A480621006848430949FFF757FE401C57
:1004400002E0002805D0401E61694905F9D400206A
:1004500010BD032010BD00000070004014000020FB
:1004600040420F00FEB5044600680027704D714EF3
:10047000800355D500200090F06BC00007D4F16BCD
:10048000A8050143F163F16B0140012000906A4827
:100490000168821511430160FFF756FF019005E0E6
:1004A000FFF752FF0199401A022825D862480068D8
:1004B000C005F5D5E8690321090208400FD0216B7A
:1004C00081420CD0E86903210902EA6988430121CD
:1004D00009040A43EA61EA698A43EA61E861C007FC
:1004E0000FD0FFF731FF019008E0FFF72DFF0199D2
:1004F000411A5248814201D9032709E0E86980077F
:10050000F3D5E869032109028843216B0843E861B8
:100510000098002804D0F16B012000078143F163AB
:100520002078C00705D068696168800880000843AA
:1005300068612078800705D568690C218843A16827
:10054000084368612078800606D56869032189021E
:100550008843E168084368612088800506D568699A
:10056000032189048843A169084368612088400504
:1005700006D56869032109058843E1690843686174
:100580002078400606D5686903210903884321695C
:1005900008436861208840040ED56869216A80009C
:1005A0008008084368610121206A8907884203D1D5
:1005B000F06889130843F0602068000305D5686976
:1005C00040218843616A08436861206881021C48B1
:1005D0000BD569698210A36A914319436961A16AC5
:1005E000914202D1F1680143F160216849020AD5C4
:1005F0006969E26A814311436961E16A814202D11A
:10060000F1680143F160208800050FD56869032176
:10061000890388436169084368610121606989032E
:10062000884203D1F06889000843F0603846FEBD77
:10063000401002400010024000700040881300008B
:1006400000000001F8B50F46060043D04D4D286864
:100650004007400FB84213D22868C008C000384392
:100660002860FFF771FE044605E0FFF76DFE011BF1
:100670004548814261D828684007400FB842F4D10C
:100680003068424C81070DD5400704D5A06807218A
:1006900009030843A060A0680F2109028843B168DC
:1006A0000843A0603078C00732D0706801280AD0B3
:1006B00002280BD000280FD03449403103280ED037
:1006C000C969890704E02168890301E0216889017B
:1006D000002906DB0120F8BD21684905F8E7096A11
:1006E000EFE7A168C908C9000143A160FFF72CFE2C
:1006F000009006E0FFF728FE0099411A2248814247
:100700001BD8A068382108407168C9008842F1D11F
:1007100028684007400FB84217D91A480168C9082D
:10072000C90039430160FFF70FFE054607E0FFF7F8
:100730000BFE411B1448814201D90320F8BD11482A
:1007400000684007400FB842F1D13078400706D525
:10075000A068072109038843F1680843A06000F0FE
:1007600031F8A1683C2289091140094A515CC90647
:10077000C90EC8400749086007480068FFF706FE31
:10078000F8BD000000200240881300000010024065
:100790000026000814000020080000200648074931
:1007A00000688968064A4904490F8900515CC906F6
:1007B000C90EC8407047000014000020001002401D
:1007C0004026000810B5204CA068204A8006400F43
:1007D00016D0A0688006410F501001290FD0A168E3
:1007E0008906490F022912D0A0688006400F04280C
:1007F00023D0A0688006400F032821D0002010BD20
:10080000206801218004400F8140104612E0E16819
:100810008B07E1689B0F4906490F491C032B00D049
:100820001046FFF763FCE1684904490E4843E1685C
:10083000490F491CFFF75AFC10BD0120C00310BD31
:100840007D20000210BD0000001002400024F400D2
:10085000F8B504007ED020783827C007EF4D002877
:1008600046D0A868E96838408907890F102802D067
:1008700008280BD001E0032908D001206268000499
:1008800082420AD129680143296015E02868800363
:100890002ED560680028DDD02AE0052301211B0445
:1008A00089049A422A6802D10A432A60EAE782430D
:1008B0002A60286888432860606800280CD0FFF709
:1008C00043FD064604E0FFF73FFD801B642873D814
:1008D00028688003F7D50BE0FFF736FD064604E0F5
:1008E000FFF732FD801B6428F1D828688003F7D415
:1008F0002078800769D5A868E96838408A07072109
:10090000920FC902102802D0002813D001E0022A59
:1009100010D0E068002846D0286888432169084341
:1009200028602868FF21013108432860FFF70CFD8B
:1009300006462CE02A68520502D5E268002A89D0D2
:100940006A687F231B029A4363691B021A436A6029
:10095000002800E08DE00ED1286888432169084313
:100960002860286801218004400F8140AC48FFF7CF
:10097000BDFBAC490860AC480068FFF707FD0028E4
:1009800077D122E0FFF7E0FC801B02289FD828687F
:100990004005F7D568687F2109028843616909022B
:1009A0000843686011E02968FF2001308143296015
:1009B000FFF7CAFC064605E098E0FFF7C5FC801B80
:1009C000022884D828684005F7D42078974E00077D
:1009D0002ED5A8688006400F03280AD0A0690028F9
:1009E000306A16D0012108433062FFF7ADFC07469C
:1009F0000BE0306A80071BD5A06900289FD017E064
:100A0000FFF7A2FCC01B022870D8306A8007F7D518
:100A10000EE0400840003062FFF796FC074604E015
:100A2000FFF792FCC01B022860D8306A8007F7D419
:100A3000207840076CD5A86800278006400F04285E
:100A400018D0E86BC00008D4E96B0120000701430F
:100A5000E963E96B01400127009175480168C90508
:100A600019D40168821511430160FFF76DFC0090F5
:100A70000DE083E0F06980074AD5A06800287DD0AA
:100A800046E0FFF761FC0099401A02282ED868481A
:100A90000068C005F5D5A168012910D004200529FA
:100AA000F16911D049084900F161F1698143F161AF
:100AB000A068002816D0FFF747FC00900EE0F06910
:100AC00001210843F061F3E70143F161F7E7FFF724
:100AD0003BFC0099411A574881426FD8F069800762
:100AE000F5D50EE0FFF730FC009007E066E0FFF779
:100AF0002BFC0099411A4F4881425FD8F06980076A
:100B0000F5D4002F04D0E86B012109078843E8637E
:100B1000E06900287FD0A9688906490F022953D0CF
:100B200001263606022828680DD0B0432860E86800
:100B300080088000E860E8683F490840E860FFF707
:100B400003FC04463CE0B0432860FFF7FDFB07468A
:100B500004E0FFF7F9FBC01B02282FD828688001AA
:100B6000F7D4616A206AA26A0843E16A120211435B
:100B70000843216B0843616B084300E049E0E968E2
:100B80002E4A11400843E860286830432860E8682E
:100B9000012109070843E860FFF7D6FB044604E09B
:100BA000FFF7D2FB001B022808D828688001F7D580
:100BB00031E0FFF7C9FB001B022801D90320F8BD73
:100BC00028688001F5D426E00128F8D0E868226A78
:100BD0008107890F91421CD17021626A01409142C4
:100BE00017D17F21A26A090201401202914210D15D
:100BF0001F214904E26A014091420AD107214906B6
:100C0000226B0140914204D1400F616B4007884242
:100C100001D00120F8BD0020F8BD00000010024006
:100C20000024F400140000200800002040100240BE
:100C30000070004088130000FFFFFEEE8C80C111A1
:100C4000F8B5040007D0002625464035A662687F27
:100C5000002802D005E00120F8BD2E77204600F0E4
:100C60004BF802236B7720680168402291430160B2
:100C70000721E0680902884201D9002201E001222F
:100C800012030F273F02B84202D0884200D0A6626A
:100C9000276B002F05D1884201D9236301E0012091
:100CA0002063A168606863690843216919430843A8
:100CB0000123A1695B0219400843E1690843216AE5
:100CC0000843A16A084321680860616B606AA369F0
:100CD00008431B0C0427E1683B4019430843216883
:100CE000104348602068C1697A029143C161266659
:100CF000012068770020F8BD10B586B004461421A5
:100D00006846FFF740FA1049206888421AD10F4818
:100D1000C26B09140A43C263C26B0A400592426B5C
:100D200002210A434263406B0191084005900D2067
:100D3000C00200900020029003900490694604488D
:100D4000FFF762FA06B010BD003800400010024004
:100D500000040050FFB504464068FF2125460026E8
:100D60000531403581B01746884202D1A06800287D
:100D70000CD0287F012815D001202877FFF7E4FA4E
:100D80000090687F01280FD002268BE0042068774E
:100D900013460498029A00901146204600F04AF942
:100DA00005B0F0BD0220FBE70298002879D0002FA3
:100DB00077D0042068770020206602992164AF80F4
:100DC000EF80A063A087E087E06420650721012011
:100DD000E268090200038A422268536801D983430A
:100DE00000E0034353600122A068D203904205D182
:100DF0002068026801239B039A430260206802680E
:100E0000520603D4026840231A430260E068884215
:100E10001AD937E020688168C90709D0007B216CA6
:100E20000870206C401C2064E888401EE8800BE0BD
:100E3000FFF78AFA0099411A0498814202D3401CB4
:100E400002D035E0002833D0E8880028E2D11CE049
:100E500020688168C90709D0C068216C0880206CAF
:100E6000801C2064E888401EE8800BE0FFF76CFAE5
:100E70000099411A0498814202D3401C02D017E025
:100E8000002815D0E8880028E2D12046009A04996D
:100E900000F066FC002801D020202066206E00288B
:100EA00000D001260120687700202877304677E7B8
:100EB0000326F7E7FFB5054604464035287F00279F
:100EC00081B01646012809D001202877FFF73CFAA7
:100ED0000090687F012804D00227A5E0022005B019
:100EE000F0BD0298002870D0002E6ED003206877E5
:100EF000002020660299A163A687E6872064A88067
:100F0000E8802065E0640120A168C003814205D12A
:100F10002068016801229203114301602068016882
:100F2000490603D401684022114301600721E068AB
:100F300009028842606826D9002801D0012E1ED1FE
:100F4000A06B21680088C86006E020688168890776
:100F500009D5A16B0988C160A06B801CA063E08FDC
:100F6000401EE0870BE0FFF7EFF90099411A049863
:100F7000814202D3401C02D04CE000284AD0E08FCE
:100F80000028E2D139E0002801D0012E32D1E08FD3
:100F90000128A06B03D921680088C8600FE0216890
:100FA0000078087314E0E08724E0206881688907EE
:100FB00014D5E18F0129A16B08D90988C160A06B04
:100FC000801CA063E08F801EEDE72CE009780173A0
:100FD000A06B401CA063E08F401EE4E7FFF7B4F96C
:100FE0000099411A0498814202D3401C02D011E0BA
:100FF00000280FD0E08F0028D7D12046009A04990E
:1010000000F0EAFB002801D020202066A06800281C
:1010100002D005E0032707E02068C16880680090DF
:10102000206E002800D00127012068770020287753
:10103000384654E7FFB5044683B0012001900020F4
:10104000254640350090287F0C9F1E4601280FD072
:1010500001202877FFF778F90290687F61680128FE
:101060000DD0CA1FFD3A08D1A168002905D102E0C0
:10107000022007B0F0BD042801D0022006E1049848
:10108000002822D0059800281FD0002E1DD0687F90
:10109000042801D005206877002020660599216486
:1010A000EE80AE800499A163E687A687E0642065A0
:1010B0000721E0680902884201D8012E07D920687B
:1010C000426801231B039A4306E00120DEE020680A
:1010D000426801231B031A434260206802685206DB
:1010E00003D4026840231A430260E06888426068C3
:1010F00045D9002801D0012E3AD1A06B2168008883
:10110000C860A06B801CA063E08F401EE0872FE0CA
:1011100020688168890710D5E18F00290DD00199D9
:1011200001290AD1A16B0988C160A06B801CA06352
:10113000E08F401EE0870020019020688168C90789
:101140000DD0E98800290AD0C068216C0880206C85
:10115000801C2064E888401EE88001200190FFF791
:10116000F3F801460298081AB84201D3781C72D1EC
:10117000E08F0028CCD1E8880028C9D174E000288D
:1011800001D0012E6AD1E08F0128A06B08D9216817
:101190000088C860A06B801CA063E08F801E07E001
:1011A000216800780873A06B401CA063E08F401E8C
:1011B000E08753E02068816889071BD5E18F00290B
:1011C00018D00199012915D1E18F0129A16B07D907
:1011D0000988C160A06B801CA063E08F801E06E0C0
:1011E00009780173A06B401CA063E08F401EE0876C
:1011F0000020019020688168C90723D0E988002970
:1012000020D0E988012912D9C068216C0880206C9F
:10121000801C2064E888801EE880E88801280FD8B8
:1012200020684268012109030A43426008E0007B0C
:10123000216C0870206C401C2064E888401EE88007
:1012400001200190FFF780F801460298081AB84281
:1012500002D3781C02D018E0002F16D0E08F0028AF
:10126000A8D1E8880028A5D139462046029A00F086
:10127000B3FA002803D0012000902020206601202E
:101280006877002028770098F3E603200090F6E7BF
:10129000094910B5401E884201D9012010BD074CF4
:1012A00060610321081F00F0DFFF0020A06107201C
:1012B0002061002010BD0000FFFFFF0000E000E003
:1012C00030B5014660310A7F012A18D001220A7721
:1012D0002423024680321446136003681A681D688E
:1012E0006D086D001D6001235B079A430023436670
:1012F00000680260202020600B77184630BD022075
:1013000030BDF8B5054604466035287F01281DD05C
:10131000012028772422204680300746026020687A
:10132000066802685208520002602068826807233B
:101330005B069A430A438260204600F045FB206822
:1013400006602020386000202877F8BD0220F8BD14
:10135000F8B5054604466035287F01281CD00120D9
:1013600028772422204680300746026020680668DD
:10137000026852085200026020688268D200D208D7
:101380000A438260204600F01FFB20680660202090
:10139000386000202877F8BD0220F8BD70B5040041
:1013A00006D02046803005460068002802D007E0BD
:1013B000012070BD00217C200155204600F026F858
:1013C00024202860206801684908490001602046FF
:1013D00000F0C2FB0128ECD0A06A002802D0204611
:1013E00000F022FB206841680922D202914341604B
:1013F000206881682A229143816020680168012267
:1014000011430160204600F075FB70BD10B586B039
:10141000044614216846FEF7B6FE13492068884248
:101420001FD112480268012189030A430260006843
:10143000084005900D484038426B01210A43426341
:10144000406B049108400590032040020090022068
:101450000190002002900390052069460007FEF7E6
:10146000D3FE06B010BD000000380140401002401D
:10147000FFB5074604468037386885B00D462028FA
:1014800064D1002D0CD00798002809D00120A16854
:101490000003814207D12069002804D1E80702D067
:1014A000012009B0F0BD204660300290007F012885
:1014B0004CD00298012101770020B86021203860CB
:1014C000FEF742FF0190264640360798B082079803
:1014D000F0820120A1680003814202D12069002826
:1014E00002D00395002515E00020039012E00022B1
:1014F0008021204600F060FE002818D103980028C3
:1015000017D02168007888620398401C0390F08A05
:10151000401EF082F08A019B002808980090E6D1D6
:1015200000224021204600F047FE002808D003207A
:10153000B7E728882168C005C00D8862AD1CE6E7C2
:1015400020203860029900200877AAE70220A8E747
:10155000FEE70000F0B587B014216846FEF713FEE1
:101560002C48416B042529434163416B2940059177
:10157000426B20210A434263426B0A400592416B51
:10158000012631434163416B31400591426B022199
:101590000A434263426B0A400592426B08210A43A8
:1015A0004263406B00220840059049021A48FEF74A
:1015B000C5FE1A48032400276A4691C269461848A6
:1015C000FEF722FE69461748029700950194FEF740
:1015D0001BFE15486A4691C2052069460007FEF7C2
:1015E00013FE12486A4691C269460B48FEF70CFE8C
:1015F000A802009001966946039702960648FEF7F6
:1016000003FE0B486A4691C269460A48FEF7FCFD94
:1016100007B0F0BD0010024000040050FFFF0000C2
:101620000008005000140050FF990000FF870000E0
:101630007F030000000C005010B511480F490160F5
:10164000FF21053141600021072281601202016102
:10165000C26001224161520282610162182241622C
:10166000C26181620722C262016308214163FFF700
:10167000E7FA002801D0FEF7C5FD10BD0038004094
:101680003C00002010B5184816490160E1214902CC
:10169000416000218160C16001618161C1610162BD
:1016A0000C22416242618162FFF778FE002801D07E
:1016B000FEF7A8FD00210C48FFF74AFE002801D0E4
:1016C000FEF7A0FD00210848FFF71BFE002801D00F
:1016D000FEF798FD0448FFF7F3FD002801D0FEF760
:1016E00091FD10BD00380140A000002070477047F8
:1016F000F1B500240121224609031548FEF71EFE1C
:101700009F2214A1144800F09BFD102301221249CE
:101710000098FFF7CFFB114D0020687010262F4670
:10172000102301220D490098FFF714FB69783878DF
:10173000CA00B21A90400443491CC8B2687003281A
:10174000EED3012211030248FEF7F8FD2046F8BD52
:1017500000040050256300001C0000200000002051
:10176000F7B504464068FF26053682B01546B042FC
:101770000CD10121A068C903884202D049118842D6
:1017800004D1206801684022914301600095002245
:1017900080212046039B00F08DF82027002813D1DC
:1017A0006068B04216D1A068B902884202D04911DF
:1017B00088420FD103210095002249022046039B55
:1017C00000F030F8002805D0206E38432066032052
:1017D00005B0F0BD0020FBE7F8B50F460B461546F7
:1017E0000092032104460022C90200F01BF82026C3
:1017F000002812D13B46002280212046009500F0AF
:1018000059F8002809D103213B460022490220460D
:10181000009500F007F8002803D0206E30432066C2
:101820000320F8BDF8B51D4617460E46044610E0E5
:10183000032149028E4202D1002F00D1007B681C97
:1018400007D0FEF781FD0699401AA84208D2002D64
:1018500006D0206881683140B942E9D10020F8BD46
:1018600020684168E022914341606068C11FFD39F2
:101870000CD10121A068C903884202D049118842D5
:1018800004D1206801684022914301600120A16ACF
:101890004003814207D121680A6882430A602168B7
:1018A0000A6802430A6001204034607700202077F4
:1018B0000320F8BDF8B51D4617460E46044609E05C
:1018C000681C07D0FEF740FD0699401AA8420BD2CB
:1018D000002D09D020688168304688432ED0002032
:1018E000B842EDD10020F8BD20684168E022914364
:1018F00041606068C11FFD390CD10121A068C90396
:10190000884202D04911884204D1206801684022EF
:10191000914301600120A16A4003814207D12168FF
:101920000A6882430A6021680A6802430A6001204B
:1019300040346077002020770320F8BD0120CFE7F6
:10194000704710B5FEF706FD10BD70B5A0B0382188
:101950006846FEF718FC00251B951C951D95342143
:101960000EA81E95FEF70FFC01204002FEF754FD65
:1019700001242004019003200890009410200A9074
:10198000400302260B90079600020C9000010D9078
:1019900009956846FEF75CFF07201B901D95022104
:1019A0001C961E951BA8FEF74DFE0EA80F950E94D3
:1019B000FEF758FD20B070BD01200249C0068860C6
:1019C0007047000000ED00E0F0B513A106C985B036
:1019D0000192009112A206CA039202910446416E3E
:1019E0004034002915D000688168806809014D0FD6
:1019F000400F02AE315C6F46385CC000FEF776FBEC
:101A00006085785D715DC000FEF770FB208505B0D4
:101A1000F0BD01206085F9E7010101030701000025
:101A2000080402040801010110B5018DC90707D09F
:101A300001684A6801235B049A43C36A1A434A60F7
:101A4000018D890707D501684A6801231B049A4361
:101A5000036B1A434A60018D490707D501684A683C
:101A600001239B049A43436B1A434A60018D090783
:101A700007D501684A680123DB039A43836B1A4345
:101A80004A60018DC90607D50268916801231B03CE
:101A90009943C36B19439160018D890607D501688D
:101AA0008A6801235B039A43036C1A438A60018DA1
:101AB000490612D503685A6801210905446C8A4316
:101AC00022435A60426C8A4207D10268516803235C
:101AD0005B059943836C19435160018D090607D555
:101AE00001684A680123DB04C06C9A4302434A60E0
:101AF00010BD0000FEB50546002680350446AE60E8
:101B0000FEF722FC019020680068124F000709D5FB
:101B100001210097002249052046019B00F04CFB63
:101B200000280DD12068006840070BD501210097DF
:101B3000002289052046019B00F03EFB002801D0D1
:101B40000320FEBD202028606860603426770020D6
:101B5000FEBD0000FFFFFF01F8B504460368806882
:101B60002269E66910436269002532431043626EC0
:101B7000F24902431868F24E304010431860226860
:101B8000506803231B039843E3681843506022689E
:101B9000A0698A4201D0236A18439368E94E334012
:101BA000034393602068C26A636A120912011A43F0
:101BB000C262E54B2068E54A98420AD15269920711
:101BC000920F39D0012A3BD0022A37D0032A25D1DF
:101BD00022E0DF4B98420AD152690C231A402BD0E5
:101BE000042A2DD0082A29D00C2A17D114E0D94B69
:101BF000984221D0D84B98421ED088420ED15369CA
:101C000003229202134017D0012292029B1A17D08E
:101C10009B1A13D0934201D1082600E01026FF271B
:101C2000013788426FD1002E0CD0022E3BD0042EFB
:101C30007CD0082E69D182E00026F0E70226EEE78C
:101C40000426ECE7FEF7AAFD72E0022129E0022853
:101C500012D0032812D0042812D0052812D006284A
:101C600012D0072812D0082812D0092812D00A282A
:101C700012D00B2814D111E0042112E0062110E04B
:101C800008210EE00A210CE00C210AE0102108E0F6
:101C9000202106E0402104E0802102E0394600E0F6
:101CA000012110461AE0606A002815D0012824D0CE
:101CB000022824D0032824D0042827D0052827D0A0
:101CC000062827D0072827D0082827D0092827D07A
:101CD0000A2827D00B2827D00121A048FEF706FAB2
:101CE000002860D0616800914A008918814259D863
:101CF00000990903814255D356E00221EDE7042102
:101D0000EBE70621E9E73AE110E04BE00821E4E7E0
:101D10000A21E2E70C21E0E71021DEE72021DCE7E1
:101D20004021DAE78021D8E73946D6E7FEF74AFDB9
:101D30000246606A0028B3D0012888D185E7606A2E
:101D4000002815D0012817D0022817D0032817D053
:101D5000042817D0052817D0062817D0072817D031
:101D6000082817D0092817D00A2817D00B2817D011
:101D700001210120C003B1E70221FAE70421F8E7BD
:101D80000621F6E70821F4E70A21F2E70C21F0E743
:101D90001021EEE72021ECE74021EAE78021E8E787
:101DA0003946E6E70125DDE1002E31D0022E76D05E
:101DB000042E75D0082EF5D1606A002815D00128B0
:101DC0006FD002286ED003286DD004286CD005286F
:101DD0006BD006286AD0072869D0082868D009285F
:101DE00067D00A287ED00B2800D0012700260120CA
:101DF0003A463346C0030021FEF78EF9020E09026F
:101E0000114302020098400810187141009A3CE00A
:101E1000FEF7C4FC85E0012815D0022815D0032860
:101E200015D0042815D0052815D0062815D0072868
:101E300015D0082815D0092815D00A2815D00B2848
:101E400014D0012712E0022710E004270EE0062735
:101E50000CE008270AE00A2708E00C2706E0102714
:101E600004E0202702E0402700E080270026084603
:101E70003A4633463146FEF74FF9020E0902114346
:101E8000626803025008181871410023FEF744F9F4
:101E900003210902421A32498A426FD982E709E0D6
:101EA0003DE043E044E045E046E05BE05CE05DE0CF
:101EB0005EE05FE0606A002817D001281BD002288E
:101EC0001BD003281BD004281BD005281BD00628B4
:101ED0001BD007281BD008281BD009281BD00A2894
:101EE0001BD000E048E00B2800D0012700263A462E
:101EF00033461A487FE70227F8E70427F6E7062764
:101F0000F4E70827F2E70A27F0E70C27EEE71027A7
:101F1000ECE72027EAE74027E8E78027E6E7FEF737
:101F200051FC0146606A00288BD074E702275DE708
:101F300004275BE7062759E7082757E7008000409A
:101F4000F369FFCFFFF4FF11003801404010024059
:101F50000044004000480040004C00400024F400D1
:101F6000FFFC0F000A2741E70C273FE710273DE75A
:101F700020273BE7402739E7802737E7F0E00122B9
:101F8000E069D20390426ED1002E06D0022E35D0E9
:101F9000042E7AD0082E81D17AE0FEF7FFFB76E09E
:101FA000012815D0022815D0032815D0042815D0F3
:101FB000052815D0062815D0072815D0082815D0D3
:101FC000092815D00A2815D00B2814D0012712E0B3
:101FD000022710E004270EE006270CE008270AE09D
:101FE0000A2708E00C2706E0102704E0202702E07B
:101FF000402700E08027394610461BE0606A002831
:1020000015D001282BD002282BD003282DD004284E
:102010002DD005282DD006282DD007282DD0082812
:102020002DD009282DD00A282DD00B2800D001272B
:1020300039465F48FEF75AF8616840004A08801840
:10204000FEF754F880B201465A4A1039914200D93D
:10205000A8E6511C01400007400F084380E002271A
:10206000E6E70427E4E717E00FE00627E0E70827A4
:10207000DEE70A27DCE70C27DAE71027D8E7202776
:10208000D6E74027D4E78027D2E7FEF79BFB02463E
:10209000606A00289AD083E7002E06D0022E35D041
:1020A000042E7ED0082ED3D17EE0FEF777FB7AE0B7
:1020B000012815D0022815D0032815D0042815D0E2
:1020C000052815D0062815D0072815D0082815D0C2
:1020D000092815D00A2815D00B2814D0012712E0A2
:1020E000022710E004270EE006270CE008270AE08C
:1020F0000A2708E00C2706E0102704E0202702E06A
:10210000402700E08027394610461BE0606A00281F
:1021100015D0012830D0022830D0032830D0042830
:1021200031D0052831D0062831D0072831D00828F1
:1021300031D0092831D00A2831D00B2800D001270E
:1021400039461B48FDF7D2FF61684A088018FDF741
:10215000CDFF80B20146174A1039914200D921E6DD
:102160002168C8602046012140304185018500205A
:10217000E06620672846F8BD0227E1E70427DFE78D
:102180000627DDE70DE00827DAE70A27D8E70C275E
:10219000D6E71027D4E72027D2E74027D0E78027CB
:1021A000CEE7FEF70FFB0246606A002896D07FE775
:1021B0000024F400EFFF0000FFB581B017460E4683
:1021C00004460A9D09E0681C07D0FEF7BDF8049993
:1021D000401AA8420CD8002D0AD02068C1693046A8
:1021E00088431AD00020B842EDD0002005B0F0BDE1
:1021F00020680168FF22A132914301602068816854
:1022000049084900816020212046803001604160FA
:102210000020603420770320E8E70120E3E7000096
:102220000FB410B503A9044B044A029800F04EF80D
:1022300010BC08BC04B01847B525000818000020E1
:102240000FB410B504A9074B02AA039800F03EF89A
:10225000044602A9002000F0A7F9204610BC08BCE3
:1022600004B01847A92500088307FF22DB0E9A4017
:102270008907090E9940002808DB830809489B005C
:102280001B18186890430843186070470007000F38
:102290000838830804489B001B18D86990430843FA
:1022A000D861704700E400E000ED00E002E008C8FB
:1022B000121F08C1002AFAD170477047002001E0C0
:1022C00001C1121F002AFBD170470000FFB58FB07B
:1022D0000F460446002606E025280AD0129A1199D6
:1022E0009047641C761C20780028F5D1304613B046
:1022F000F0BD00250121A14A009500E00543641CC2
:1023000023780846203B98401042F7D120782E28A9
:1023100015D1042005436078641C2A280AD101CF16
:10232000641C00900BE000990A2251433039401898
:10233000641C00902078014630390929F3D92078AF
:102340006C280ED004DC4C2813D06A2812D104E08B
:1023500074280ED07A280DD10BE0012040050543EA
:1023600007E00121090562780D43824201D16D1811
:10237000641C641C2078864669284AD008DC002842
:10238000B4D058286DD0632810D0642808D140E01C
:1023900070286BD0732812D0752860D0782860D050
:1023A000129A704611999047761CE5E03878694694
:1023B00008720020487202A80190012003E03868EA
:1023C00001900020C0433F1D69070CD5002500E0A7
:1023D0006D1C00998D420FDA8542F9DB0199495D48
:1023E0000029F5D108E0002500E06D1C8542FCDBEA
:1023F0000199495D0029F8D1761907E00198019902
:102400000078491C0191129A119990476D1EF5D2DE
:10241000B2E00A20029000216802400F03910228D6
:102420000CD001CFC117844600290DDA6246084658
:1024300052420021814194462D2008E0FF1DFF08F3
:10244000FF0003CF8446EFE7280504D52B206A461A
:10245000107401203CE0E8073AD02020F7E70A207A
:1024600000E0102000210391029007E0102002906C
:102470000021042005430820039100906802400FCA
:10248000022810D001CF0021844600200D9028079B
:102490001FD5704670280CD0029A1020039B424032
:1024A0001A430CD015E0FF1DFF08FF0003CF844640
:1024B000EBE740206A46107401200D900CE0604666
:1024C000084306D030206A461074704650740220CB
:1024D0000D907046582804D029A001900DA80E90A8
:1024E0000DE02CA0F9E76046039B029AFDF714FE6D
:1024F000019B84469B5C0E9A521E0E92137060469E
:102500000843F0D10E9805A9081A203001906807F9
:1025100001D5009801E0012000900199884203DD77
:1025200001460198081A00E000200025009006E00E
:1025300004A8129A405D119990476D1C761C0D9865
:102540008542F5DB04E0129A302011999047761C01
:102550000099481E00900029F5DC08E00E980E99BD
:102560000078491C0E91129A11999047761C019996
:10257000481E01900029F1DC641CB4E60928010022
:1025800030313233343536373839616263646566E9
:1025900000000000303132333435363738394142AB
:1025A00043444546000000000A68531C0B6010704D
:1025B0007047000013B5044B012269460348FEF73B
:1025C00057FF00981CBD0000FFFF0000A000002086
:1025D000FDF7C8FEFFF7B9F9FEF7BCFFFFF72CF8CF
:1025E000FFF750F80348FFF783F8014602A0FFF712
:1025F00017FEFEE73C0000200D0A255800000000F1
:1026000000000000000000000000000000000000CA
:1026100000000000000000000000000000000000BA
:1026200001000000020000000300000004000000A0
:10263000060000000700000008000000090000007C
:10264000000000000000000000000000000000008A
:102650000100000002000000030000000400000070
:1026600080260008000000201C000000AC220008AA
:102670009C2600081C00002014050000BC22000855
:102680000000000000000000040000000100000045
:0C269000000000000024F4000000000026
:04000005080000BD32
:00000001FF
