:020000040800F2
:1000000048070020D10000084116000831140008FC
:1000100000000000000000000000000000000000E0
:10002000000000000000000000000000451600086D
:1000300000000000000000004316000847160008FA
:10004000E3000008E3000008E3000008E300000804
:10005000E3000008E3000008E3000008E3000008F4
:10006000E3000008E3000008E3000008E3000008E4
:10007000E3000008E3000008E3000008E3000008D4
:10008000E3000008E3000008E3000008E3000008C4
:10009000E3000008E3000008E3000008E3000008B4
:1000A000E3000008E3000008E3000008E3000008A4
:1000B000E3000008E3000008E30000080348854669
:1000C00000F05AFA00480047A1290008480700201C
:1000D0000448804704480047FEE7FEE7FEE7FEE7E6
:1000E000FEE7FEE7C1160008BD00000830B50B466C
:1000F000014600202022012409E00D46D5409D4202
:1001000005D31D469540491B254695404019154687
:10011000521E002DF1DC30BDF0B51FB406460020A4
:1001200082B005464024019100901BE001992246CF
:100130000F46304600F049F8049A059B801A994111
:1001400010D310461946224600F02FF8361A8F4178
:100150000197224601200021009F00F026F8381860
:100160004D4100902046641E0028DFDC019B009872
:100170002946324607B0F0BDD2B201E00270401C01
:10018000491EFBD270470022F6E710B513460A4617
:1001900004461946FFF7F0FF204610BD421C0178C7
:1001A000401C0029FBD1801A704710B5202A04DBBF
:1001B0000146203A9140002010BD914020239C1A16
:1001C0000346E3401943904010BD10B5202A04DBDC
:1001D0000846203AD040002110BD0B46D340D04005
:1001E0002024A21A91400843194610BDF0B50746D5
:1001F0000846584087B0C00F049048000E4659008A
:1002000040084908BC1A884105D2384631461E4686
:1002100017460B4602465800400810434CD0300D9C
:10022000039040055900400D490D0590401A029079
:10023000402872DA18030121000B090508430190D8
:1002400004980092002805D001995242002088416C
:1002500000920190029840210A1A01990098FFF734
:10026000A4FF05460C466B4607CB00F097F9C01972
:100270007141039A0E0D0023D71756401A467A4053
:10028000164344D0049A002A2DD0029A012A039AD8
:1002900015DC1205C01A914101263605001C71417A
:1002A000D20F059ED2070093019202962A4623465A
:1002B00000F094F907B0F0BD38463146FAE716056C
:1002C000224A0F46B218C01AB74101210905001C85
:1002D0004F4100187F41114618187941E20F104331
:1002E0006D19644113E0E2076D0815436408C20705
:1002F0001443039A01261205C01A91413605001CC9
:100300007141CE07400830434908C01851412A4680
:10031000234600F056F9CDE7FFE70498012240009C
:10032000C117121A00238B4104983146C417381A9A
:10033000A141EEE730B40124E407634030BC55E747
:1003400030B40124E407614030BC4FE70000E0FF17
:10035000F0B51FB488B00B9909980024484009995A
:10036000C00F490049080991C0070B990090490046
:1003700049080B9109990898A64608431CD00B9987
:100380000A98084318D0099801244000420D4800FB
:10039000410D099824050003000B204309900B9898
:1003A0000003000B20430B9050181C4940180022FA
:1003B00001901446104605E0002001460DB0F0BD46
:1003C000032801DA034600E003239C46C11A0AAE63
:1003D0000AE05F0008ADED5B4F00F75B7D4300274F
:1003E000AA187C41491C5B1E6145F2DD410004AB4B
:1003F0005A522104120C0A43240C401C0828DFDB4B
:10040000019802900099704601910090059B049A12
:100410000799069800F0E2F8D0E700000DFCFFFF16
:10042000F0B50C465C4085B0E40FE40703944C0043
:100430000026640859009446490802460296224361
:1004400021D062460A431ED06200570D4A000E03B7
:100450002303550D012402462C492405781B1B0B50
:10046000360B401823432643614600901C46501A21
:10047000B44103D30098401C009002E09218009809
:100480005B41002803DA0020014605B0F0BD0020E2
:10049000012109050746864611E064461D46141BE6
:1004A000B54106D36546521BB341744607430C431E
:1004B000A646CD0740084908284392185B410546E7
:1004C0000D43EAD11046184313D0604619465040F8
:1004D0007140084306D06046101AB34106D201228B
:1004E000002306E000220123DB0702E00122D243C1
:1004F0005310009874460105381C6141029C039D0D
:100500000019694100F05DF8BFE70000FD0300003D
:100510004A0009030123090B1B0519430A4B10B5B7
:10052000520D9A4202DA0020014610BD064B3433C8
:100530009A4203DC9A1AFFF748FE10BD034BD2180B
:10054000FFF733FE10BD0000FF030000CDFBFFFFEF
:1005500010B5002904DB0124E40740428C41214608
:10056000002B04DB1C460123DB075242A3419942C6
:1005700000D1904210BD0000064C0125064E05E05A
:10058000E36807CC2B430C3C98471034B442F7D3B4
:10059000FFF798FDF02A0008102B000810B5202A5C
:1005A00006DBCB170846203A1041C1170B4306E083
:1005B0000B461341D0402024A21A9140084319460B
:1005C00010BD10B5002B08DA0024401C61419218C0
:1005D0005B411A4301D14008400010BDF0B51FB483
:1005E00082B005460C0003D0084601F025FD02E06C
:1005F00001F022FD20300246009021462846FFF7F8
:10060000D4FD049B059A04460F4618431143084342
:1006100014D0184610431BD0009840210A1A1846DF
:100620000599FFF7D2FD05460E46009A05990498F4
:10063000FFF7BBFD084305D0012004E02046394602
:1006400007B0F0BD0020C11705430E432C433743CC
:1006500000990E986305401A7905E40A00220C43BC
:10066000FD0A0A3002D500200146E9E7010510190C
:1006700069410C9C0D9D00196941FFF7A2FFDFE75E
:100680007047000070B5044600F0A8F80546601CED
:1006900002D004484068241800F0A0F8401BA04293
:1006A000FAD370BD00000020F0B5002388E00122DD
:1006B0009A409446144022007ED04C68022C01D00F
:1006C000122C0CD1DC08A40027183C6A5D07ED0E43
:1006D0000F26AE40B4430E69AE4026433E62056825
:1006E0005E000324B4400F79A543BF07BF0FB74096
:1006F0002F4307604D68012D05D0022D03D0112D29
:1007000001D0122D0ED18568CF68A543B7402F4385
:10071000876047686546AF430D79ED06ED0F9D4054
:100720003D434560C568A5438C68B4402C43C46014
:100730004C68E40043D59D08244CAD002F193C6E55
:100740009D07EE0E0F25B540AC4305252D07A842A9
:1007500001D100250FE01E4DA84201D101250AE07C
:100760001C4DA84201D1022505E01B4DA84201D134
:10077000032500E00525B5402543144C3D66134D87
:1007800080352E684F689643FF0300D516432E60D0
:100790006E684F689643BF0300D516436E602568A8
:1007A0004E689543F60200D51543256065684E688E
:1007B0009543B60202D500E001E0154365605B1C7D
:1007C0000A681446DA4000D071E7F0BD0018024014
:1007D0000004005000080050000C005001488068E0
:1007E00070470000000000200248816842688918B4
:1007F000816070470000002010B50848002401689F
:10080000821511430160204600F00AF8002801D04B
:10081000012401E000F028F8204610BD002002402D
:1008200070B50F4E002471680546002915D07D2053
:10083000C000FFF75BFC01460A480068FFF756FC62
:1008400000F048FC002808D1042D06D200222946D9
:10085000401E00F027F8356000E00124204670BDFE
:10086000000000200C00002008B50C48016801229F
:100870001143016000681040009008484038C26B86
:1008800001040A43C263C06B03220840009004487D
:10089000520201681143016008BD0000401002408F
:1008A0000000014010B501F0DFFB10BD10B50F4C8A
:1008B000216803225202914301432160C11FFF3985
:1008C000FA390ED10A480621006848430949FFF762
:1008D0000DFC401C02E0002805D0401E616949055E
:1008E000F9D4002010BD032010BD000000700040AE
:1008F0000C00002040420F00FEB5044600680027AF
:10090000704D714E800355D500200090F06BC000F3
:1009100007D4F16BA8050143F163F16B014001209D
:1009200000906A480168821511430160FFF756FF85
:10093000019005E0FFF752FF0199401A022825D8DF
:1009400062480068C005F5D5E8690321090208403E
:100950000FD0216B81420CD0E86903210902EA69BA
:100960008843012109040A43EA61EA698A43EA618A
:10097000E861C0070FD0FFF731FF019008E0FFF7F3
:100980002DFF0199411A5248814201D9032709E0FC
:10099000E8698007F3D5E869032109028843216BE0
:1009A0000843E8610098002804D0F16B012000079B
:1009B0008143F1632078C00705D0686961688008C9
:1009C0008000084368612078800705D568690C219C
:1009D0008843A168084368612078800606D5686965
:1009E000032189028843E168084368612088800503
:1009F00006D56869032189048843A16908436861B1
:100A00002088400506D56869032109058843E16906
:100A1000084368612078400606D568690321090308
:100A20008843216908436861208840040ED56869BD
:100A3000216A80008008084368610121206A8907D3
:100A4000884203D1F06889130843F06020680003EE
:100A500005D5686940218843616A08436861206858
:100A600081021C480BD569698210A36A914319431E
:100A70006961A16A914202D1F1680143F160216884
:100A800049020AD56969E26A814311436961E16AF1
:100A9000814202D1F1680143F160208800050FD541
:100AA00068690321890388436169084368610121FA
:100AB00060698903884203D1F06889000843F060C7
:100AC0003846FEBD40100240001002400070004059
:100AD0008813000000000001F8B50F46060043D05F
:100AE0004D4D28684007400FB84213D22868C0080F
:100AF000C00038432860FFF771FE044605E0FFF7A9
:100B00006DFE011B4548814261D828684007400FAF
:100B1000B842F4D13068424C81070DD5400704D566
:100B2000A068072109030843A060A0680F210902FB
:100B30008843B1680843A0603078C00732D070683D
:100B400001280AD002280BD000280FD034494031A8
:100B500003280ED0C969890704E02168890301E0F0
:100B600021688901002906DB0120F8BD21684905BB
:100B7000F8E7096AEFE7A168C908C9000143A16065
:100B8000FFF72CFE009006E0FFF728FE0099411ABF
:100B9000224881421BD8A068382108407168C900EA
:100BA0008842F1D128684007400FB84217D91A4847
:100BB0000168C908C90039430160FFF70FFE054607
:100BC00007E0FFF70BFE411B1448814201D90320C7
:100BD000F8BD114800684007400FB842F1D13078A5
:100BE000400706D5A068072109038843F168084338
:100BF000A06000F031F8A1683C2289091140094A3F
:100C0000515CC906C90EC84007490860074800681A
:100C1000FFF706FEF8BD0000002002408813000028
:100C200000100240902A00080C0000200000002064
:100C30000648074900688968064A4904490F89003F
:100C4000515CC906C90EC840704700000C00002066
:100C500000100240D02A000810B5204CA068204A9D
:100C60008006400F16D0A0688006410F5010012961
:100C70000FD0A1688906490F022912D0A06880060A
:100C8000400F042823D0A0688006400F032821D0FD
:100C9000002010BD206801218004400F81401046D3
:100CA00012E0E1688B07E1689B0F4906490F491C78
:100CB000032B00D01046FFF719FAE1684904490EEA
:100CC0004843E168490F491CFFF710FA10BD0120A5
:100CD000C00310BD7D20000210BD000000100240C6
:100CE0000024F400F8B504007ED020783827C0072F
:100CF000EF4D002846D0A868E96838408907890F79
:100D0000102802D008280BD001E0032908D00120C8
:100D10006268000482420AD129680143296015E013
:100D2000286880032ED560680028DDD02AE00523DE
:100D300001211B0489049A422A6802D10A432A60CD
:100D4000EAE782432A6028688843286060680028B0
:100D50000CD0FFF743FD064604E0FFF73FFD801B84
:100D6000642873D828688003F7D50BE0FFF736FDB9
:100D7000064604E0FFF732FD801B6428F1D828689E
:100D80008003F7D42078800769D5A868E9683840DF
:100D90008A070721920FC902102802D0002813D019
:100DA00001E0022A10D0E068002846D02868884375
:100DB0002169084328602868FF2101310843286021
:100DC000FFF70CFD06462CE02A68520502D5E268C2
:100DD000002A89D06A687F231B029A4363691B0239
:100DE0001A436A60002800E08DE00ED1286888432D
:100DF000216908432860286801218004400F814050
:100E0000AC48FFF773F9AC490860AC480068FFF7DD
:100E100007FD002877D122E0FFF7E0FC801B0228C5
:100E20009FD828684005F7D568687F210902884364
:100E3000616909020843686011E02968FF200130F8
:100E400081432960FFF7CAFC064605E098E0FFF7FA
:100E5000C5FC801B022884D828684005F7D4207878
:100E6000974E00072ED5A8688006400F03280AD0A9
:100E7000A0690028306A16D0012108433062FFF7CC
:100E8000ADFC07460BE0306A80071BD5A06900283F
:100E90009FD017E0FFF7A2FCC01B022870D8306A71
:100EA0008007F7D50EE0400840003062FFF796FC5F
:100EB000074604E0FFF792FCC01B022860D8306AA6
:100EC0008007F7D4207840076CD5A86800278006F3
:100ED000400F042818D0E86BC00008D4E96B01204B
:100EE00000070143E963E96B014001270091754860
:100EF0000168C90519D40168821511430160FFF723
:100F00006DFC00900DE083E0F06980074AD5A06891
:100F100000287DD046E0FFF761FC0099401A0228C6
:100F20002ED868480068C005F5D5A168012910D001
:100F300004200529F16911D049084900F161F169DE
:100F40008143F161A068002816D0FFF747FC0090AC
:100F50000EE0F06901210843F061F3E70143F1611C
:100F6000F7E7FFF73BFC0099411A574881426FD8D9
:100F7000F0698007F5D50EE0FFF730FC009007E040
:100F800066E0FFF72BFC0099411A4F4881425FD879
:100F9000F0698007F5D4002F04D0E86B0121090720
:100FA0008843E863E06900287FD0A9688906490F73
:100FB000022953D001263606022828680DD0B043F6
:100FC0002860E86880088000E860E8683F490840D9
:100FD000E860FFF703FC04463CE0B0432860FFF7FD
:100FE000FDFB074604E0FFF7F9FBC01B02282FD8E2
:100FF00028688001F7D4616A206AA26A0843E16A1E
:10100000120211430843216B0843616B084300E05F
:1010100049E0E9682E4A11400843E86028683043F7
:101020002860E868012109070843E860FFF7D6FB5C
:10103000044604E0FFF7D2FB001B022808D828680A
:101040008001F7D531E0FFF7C9FB001B022801D969
:101050000320F8BD28688001F5D426E00128F8D0E7
:10106000E868226A8107890F91421CD17021626A67
:101070000140914217D17F21A26A09020140120268
:10108000914210D11F214904E26A014091420AD1E4
:1010900007214906226B0140914204D1400F616B48
:1010A0004007884201D00120F8BD0020F8BD0000B3
:1010B000001002400024F4000C000020000000207A
:1010C000401002400070004088130000FFFFFEEE59
:1010D0008C80C111094910B5401E884201D90120F8
:1010E00010BD074C60610321081F00F0BDFF002008
:1010F000A06107202061002010BD0000FFFFFF005D
:1011000000E000E030B5014660310A7F012A18D0C6
:1011100001220A77242302468032144613600368B2
:101120001A681D686D086D001D6001235B079A43F6
:101130000023436600680260202020600B77184679
:1011400030BD022030BDF8B5054604466035287F25
:1011500001281DD001202877242220468030074610
:101160000260206806680268520852000260206827
:10117000826807235B069A430A438260204600F098
:10118000A7FA206806602020386000202877F8BD84
:101190000220F8BDF8B5054604466035287F0128D1
:1011A0001CD0012028772422204680300746026088
:1011B000206806680268520852000260206882684F
:1011C000D200D2080A438260204600F081FA2068EB
:1011D00006602020386000202877F8BD0220F8BD86
:1011E00070B5040006D0204680300546006800280F
:1011F00002D007E0012070BD00217C20015520466F
:1012000000F026F824202860206801684908490079
:101210000160204600F024FB0128ECD0A06A0028E1
:1012200002D0204600F084FA206841680922D202E8
:1012300091434160206881682A229143816020683F
:101240000168012211430160204600F0D7FA70BD09
:10125000F0B587B0044614216846FEF794FF364D7A
:101260002668052000223549012402230007AE42EA
:1012700011D1324D40352F685E0337432F602D6802
:10128000354005954D6B25434D63496B21400591D4
:101290000321490212E02A4DAE4219D1CE6B01253D
:1012A0006D042E43CE63CE6B2E4005964D6B2543C9
:1012B0004D63496BC907C90F05910C210292049433
:1012C0000193039200916946FFF7EEF907B0F0BD74
:1012D0001C4F0425BE4216D1CC6B28040443CC63BA
:1012E000CC6B04400594486B18434863486B0292EA
:1012F00018400590032080020090694604950193F0
:1013000003921148E0E7114FBE42DFD1CF6B0126B7
:10131000F6043743CF63CF6B374005974E6B2643B8
:101320004E63496B0292C907C90F059103210495C9
:10133000019303920091C6E700380140001002407B
:10134000004400400048004000040050004C0040B1
:10135000FFB5074604468037386885B00D4620281B
:1013600064D1002D0CD00798002809D00120A16875
:101370000003814207D12069002804D1E80702D088
:10138000012009B0F0BD204660300290007F0128A6
:101390004CD00298012101770020B86021203860EC
:1013A000FFF71CFA0190264640360798B08207984E
:1013B000F0820120A1680003814202D12069002847
:1013C00002D00395002515E00020039012E00022D2
:1013D0008021204600F074FD002818D103980028D1
:1013E00017D02168007888620398401C0390F08A27
:1013F000401EF082F08A019B002808980090E6D1F8
:1014000000224021204600F05BFD002808D0032088
:10141000B7E728882168C005C00D8862AD1CE6E7E3
:1014200020203860029900200877AAE70220A8E768
:10143000FEE7000070B586B014216846FEF7A3FEF3
:101440002548416B042631434163416B314005918E
:10145000426B20210A434263426B0A400592416B72
:10146000012211434163416B11400591426B0221FE
:101470000A434263426B0A400592426B08210A43C9
:101480004263406B032408400590144800256A46D7
:1014900031C269461248FFF707F9694611480096BC
:1014A00002950194FFF700F90F486A4631C2052002
:1014B00069460007FFF7F8F80C486A4631C26946EA
:1014C0000B48FFF7F1F80F206A4631C26946094818
:1014D000FFF7EAF806B070BD00100240C0E000005F
:1014E0000008005000140050F0990000FFF30000C5
:1014F00000040050000C005010B518481649016057
:10150000E1214902416000218160C1600161816186
:10151000C16101620C22416242618162FFF760FE9B
:10152000002801D0FFF7ACF800210C48FFF732FE8D
:10153000002801D0FFF7A4F800210848FFF703FEB8
:10154000002801D0FFF79CF80448FFF7DBFD0028D6
:1015500001D0FFF795F810BD0038014018010020B8
:1015600010B5184816490160E12149024160002187
:101570008160C16001618161C16101620C224162CF
:1015800042618162FFF72CFE002801D0FFF778F856
:1015900000210C48FFF7FEFD002801D0FFF770F88E
:1015A00000210848FFF7CFFD002801D0FFF768F8B9
:1015B0000448FFF7A7FD002801D0FFF761F810BD30
:1015C00000440040A401002010B50D480B49016003
:1015D000E1214902416000218160C16001618161B6
:1015E000C16101620C22416242618162FFF7F8FD34
:1015F000002801D0FFF744F810BD0000004800406B
:101600003002002010B50D480B490160E12149026C
:10161000416000218160C16001618161C16101623D
:101620000C22416242618162FFF7DAFD002801D09D
:10163000FFF726F810BD0000004C0040BC0200205F
:1016400070477047704710B5FFF7CEF810BD70B502
:10165000A0B038216846FEF796FD00241B941C9428
:101660001D9434210EA81E94FEF78DFD012040022A
:10167000FFF71CF9012000900004019010200A904F
:10168000400302250B900795000203260C90089654
:1016900000010D9009946846FFF724FB07201B907A
:1016A0001D9402211C951E941BA8FFF715FA0F9498
:1016B0000EA80E961094FFF71FF920B070BD000021
:1016C00001200249C00688607047000000ED00E07C
:1016D000F0B513A106C985B00192009112A206CA05
:1016E000039202910446416E4034002915D00068EF
:1016F0008168806809014D0F400F02AE315C6F4672
:10170000385CC000FEF7F2FC6085785D715DC0005A
:10171000FEF7ECFC208505B0F0BD01206085F9E7FF
:10172000010101030701000008040204080101018E
:1017300010B5018DC90707D001684A6801235B0411
:101740009A43C36A1A434A60018D890707D5016825
:101750004A6801231B049A43036B1A434A60018DB4
:10176000490707D501684A6801239B049A43436BE4
:101770001A434A60018D090707D501684A680123A9
:10178000DB039A43836B1A434A60018DC90607D570
:101790000268916801231B039943C36B194391604D
:1017A000018D890607D501688A6801235B039A4386
:1017B000036C1A438A60018D490612D503685A6882
:1017C00001210905446C8A4322435A60426C8A42D3
:1017D00007D10268516803235B059943836C194361
:1017E0005160018D090607D501684A680123DB04B1
:1017F000C06C9A4302434A6010BD0000FEB5054626
:10180000002680350446AE60FEF7E8FF01902068B0
:101810000068124F000709D50121009700224905F1
:101820002046019B00F04CFB00280DD12068006889
:1018300040070BD501210097002289052046019B16
:1018400000F03EFB002801D00320FEBD20202860D0
:101850006860603426770020FEBD0000FFFFFF01B6
:10186000F8B50446036880682269E6691043626936
:10187000002532431043626EF24902431868F24E6B
:101880003040104318602268506803231B039843BC
:10189000E368184350602268A0698A4201D0236A35
:1018A00018439368E94E3340034393602068C26A4B
:1018B000636A120912011A43C262E54B2068E54AC5
:1018C00098420AD152699207920F39D0012A3BD02F
:1018D000022A37D0032A25D122E0DF4B98420AD1D1
:1018E00052690C231A402BD0042A2DD0082A29D063
:1018F0000C2A17D114E0D94B984221D0D84B9842EA
:101900001ED088420ED1536903229202134017D091
:10191000012292029B1A17D09B1A13D0934201D135
:10192000082600E01026FF27013788426FD1002EDD
:101930000CD0022E3BD0042E7CD0082E69D182E040
:101940000026F0E70226EEE70426ECE7FFF770F941
:1019500072E0022129E0022812D0032812D00428C4
:1019600012D0052812D0062812D0072812D0082835
:1019700012D0092812D00A2812D00B2814D111E055
:10198000042112E0062110E008210EE00A210CE0FB
:101990000C210AE0102108E0202106E0402104E0AB
:1019A000802102E0394600E0012110461AE0606A19
:1019B000002815D0012824D0022824D0032824D0C0
:1019C000042827D0052827D0062827D0072827D085
:1019D000082827D0092827D00A2827D00B2827D065
:1019E0000121A048FEF782FB002860D061680091C9
:1019F0004A008918814259D800990903814255D378
:101A000056E00221EDE70421EBE70621E9E73AE1A0
:101A100010E04BE00821E4E70A21E2E70C21E0E7CF
:101A20001021DEE72021DCE74021DAE78021D8E73A
:101A30003946D6E7FFF710F90246606A0028B3D0AE
:101A4000012888D185E7606A002815D0012817D0C1
:101A5000022817D0032817D0042817D0052817D03C
:101A6000062817D0072817D0082817D0092817D01C
:101A70000A2817D00B2817D001210120C003B1E795
:101A80000221FAE70421F8E70621F6E70821F4E746
:101A90000A21F2E70C21F0E71021EEE72021ECE724
:101AA0004021EAE78021E8E73946E6E70125DDE164
:101AB000002E31D0022E76D0042E75D0082EF5D10E
:101AC000606A002815D001286FD002286ED0032844
:101AD0006DD004286CD005286BD006286AD0072862
:101AE00069D0082868D0092867D00A287ED00B283A
:101AF00000D00127002601203A463346C0030021CA
:101B0000FEF70AFB020E0902114302020098400888
:101B100010187141009A3CE0FFF78AF885E001282F
:101B200015D0022815D0032815D0042815D0052873
:101B300015D0062815D0072815D0082815D0092853
:101B400015D00A2815D00B2814D0012712E002273F
:101B500010E004270EE006270CE008270AE00A2719
:101B600008E00C2706E0102704E0202702E04027C9
:101B700000E08027002608463A4633463146FEF705
:101B8000CBFA020E090211436268030250081818CA
:101B900071410023FEF7C0FA03210902421A3249BB
:101BA0008A426FD982E709E03DE043E044E045E046
:101BB00046E05BE05CE05DE05EE05FE0606A0028DC
:101BC00017D001281BD002281BD003281BD00428C3
:101BD0001BD005281BD006281BD007281BD008289F
:101BE0001BD009281BD00A281BD000E048E00B2896
:101BF00000D0012700263A4633461A487FE70227DD
:101C0000F8E70427F6E70627F4E70827F2E70A27AC
:101C1000F0E70C27EEE71027ECE72027EAE740275C
:101C2000E8E78027E6E7FFF717F80146606A002833
:101C30008BD074E702275DE704275BE7062759E7A7
:101C4000082757E700800040F369FFCFFFF4FF113A
:101C5000003801404010024000440040004800406D
:101C6000004C00400024F400FFFC0F000A2741E76D
:101C70000C273FE710273DE720273BE7402739E7C0
:101C8000802737E7F0E00122E069D20390426ED16D
:101C9000002E06D0022E35D0042E7AD0082E81D107
:101CA0007AE0FEF7C5FF76E0012815D0022815D0AE
:101CB000032815D0042815D0052815D0062815D0DE
:101CC000072815D0082815D0092815D00A2815D0BE
:101CD0000B2814D0012712E0022710E004270EE0A1
:101CE00006270CE008270AE00A2708E00C2706E090
:101CF000102704E0202702E0402700E08027394633
:101D000010461BE0606A002815D001282BD002285D
:101D10002BD003282DD004282DD005282DD006281F
:101D20002DD007282DD008282DD009282DD00A28FD
:101D30002DD00B2800D0012739465F48FEF7D6F991
:101D4000616840004A088018FEF7D0F980B2014669
:101D50005A4A1039914200D9A8E6511C01400007A7
:101D6000400F084380E00227E6E70427E4E717E096
:101D70000FE00627E0E70827DEE70A27DCE70C2765
:101D8000DAE71027D8E72027D6E74027D4E78027CF
:101D9000D2E7FEF761FF0246606A00289AD083E727
:101DA000002E06D0022E35D0042E7ED0082ED3D1A0
:101DB0007EE0FEF73DFF7AE0012815D0022815D01D
:101DC000032815D0042815D0052815D0062815D0CD
:101DD000072815D0082815D0092815D00A2815D0AD
:101DE0000B2814D0012712E0022710E004270EE090
:101DF00006270CE008270AE00A2708E00C2706E07F
:101E0000102704E0202702E0402700E08027394621
:101E100010461BE0606A002815D0012830D0022847
:101E200030D0032830D0042831D0052831D00628FE
:101E300031D0072831D0082831D0092831D00A28DC
:101E400031D00B2800D0012739461B48FEF74EF948
:101E500061684A088018FEF749F980B20146174ABE
:101E60001039914200D921E62168C860204601213D
:101E70004030418501850020E06620672846F8BD96
:101E80000227E1E70427DFE70627DDE70DE0082763
:101E9000DAE70A27D8E70C27D6E71027D4E7202768
:101EA000D2E74027D0E78027CEE7FEF7D5FE0246EF
:101EB000606A002896D07FE70024F400EFFF00005E
:101EC000FFB581B017460E4604460A9D09E0681C1E
:101ED00007D0FEF783FC0499401AA8420CD8002DC5
:101EE0000AD02068C169304688431AD00020B84221
:101EF000EDD0002005B0F0BD20680168FF22A132BE
:101F0000914301602068816849084900816020216F
:101F1000204680300160416000206034207703203B
:101F2000E8E70120E3E700000FB410B503AA0D486D
:101F3000029900F06FF80B48FEF730F90A49CA69B8
:101F40005206FCD50022074B05E09C5C8C62CC69F4
:101F50006406FCD5521C8242F7D310BC08BC04B006
:101F60001847000018000020004400400FB410B5CE
:101F700003AA0D48029900F04DF80B48FEF70EF940
:101F80000A49CA695206FCD50022074B05E09C5C51
:101F90008C62CC696406FCD5521C8242F7D310BC1B
:101FA00008BC04B01847000018000020004800409A
:101FB0000FB410B503AA0D48029900F02BF80B4896
:101FC000FEF7ECF80A49CA695206FCD50022074B15
:101FD00005E09C5C8C62CC696406FCD5521C824294
:101FE000F7D310BC08BC04B018470000180000204C
:101FF000004C00400FB410B503A9044B044A0298EA
:1020000000F01EF910BC08BC04B018478529000870
:102010001000002037B514460846064B6A46214694
:1020200000F00EF904466946002000F0A5FC2046A9
:102030003EBD0000792900082021020C01D01021AA
:102040001046020A01D010460839020901D0104694
:10205000091F820801D01046891E420801D0881E3F
:102060007047081A704700008307FF22DB0E9A4072
:102070008907090E9940002808DB830809489B005E
:102080001B18186890430843186070470007000F3A
:102090000838830804489B001B18D86990430843FC
:1020A000D861704700E400E000ED00E002E008C8FD
:1020B000121F08C1002AFAD170477047002001E0C2
:1020C00001C1121F002AFBD170470000F0B51FB4F8
:1020D00086B00998089A030D0021024314D0514894
:1020E000514A1818504305141198012810981AD015
:1020F000281A401C00264D4F4D490096019104902E
:10210000002812DA444211E01198012449A3012861
:1021100001D11098C1430698119A84600360C2608F
:1021200041600BB0F0BD4042E4E7044621050020C9
:102130003F4A001C51410391029012E0E00707D092
:1021400032463B4601990098FEF702F90191009052
:1021500032463B4610461946FEF7FAF806460F4649
:102160006410002CEAD10498039B0028029A099974
:10217000089806DAFEF7ECF8019B009AFEF7E8F8FB
:1021800005E0FEF74DF9019B009AFEF749F9044678
:102190000E460022284BFEF7DBF903D80020C0438F
:1021A000014607E00022254B20463146FEF71EF887
:1021B000FEF7AEF9102409E0002C0ADB0A22002306
:1021C000FDF7AAFF079B30321A55641E02460A43E8
:1021D000F2D11122641C079B121B1C19119B012BAD
:1021E00003D0012308430ED10AE0084304D0112094
:1021F00010900020119077E71098151A6D1E0BE0D3
:102200001098824202DD00236D1C03E0824201DA55
:1022100000236D1E002BEED0069811998260C160DC
:1022200030C07EE701FCFFFF104D000000001440AD
:102230000000F03F300000000000F0430000E03FED
:10224000FFB597B00646002518E2252877D100246F
:102250002746FD49049400E00443761C32780120AF
:10226000203A90400842F7D130782A280ED0022236
:10227000307801463039092916D804990A23594380
:10228000303940181443761C0490F1E7189802C8BE
:1022900004911890002904DA0120400304434842C5
:1022A000049002200443761C30782E2814D1042098
:1022B00004437078761C2A2809D11898761C80C8A7
:1022C000189009E00A214F43303FC719761C307837
:1022D000014630390929F5D930786C2810D006DC50
:1022E0004C281AD068280ED06A2817D104E0742828
:1022F00013D07A2812D110E00120400504430CE0ED
:102300000121090501E0032109050C43717881428F
:1023100003D1012000052418761C761C307811901A
:1023200066280BD013DC58287DD009DC00287BD030
:102330004528F6D04628F4D047281AD1A5E118E060
:10234000632835D0642870D0652812D19DE17028AB
:102350006CD008DC6728F1D069287BD06E280DD0BE
:102360006F2806D1BAE073282ED0752871D078284E
:1023700059D01A9A199990476D1C7EE16002400F5E
:10238000022809D003280DD00428189801680DD020
:102390000D60001D189070E11898EA1701680D6033
:1023A0004A60F6E7189801680D80F2E70D70F0E7D3
:1023B00018986A4601781172001D1890002050721A
:1023C00002A80090012005E0189802C8189000208B
:1023D0000091C04361070DD5002101E00199491C1E
:1023E0000191B94212DA8142F8DB009A515C00296E
:1023F000F4D10BE0002101E00199491C01918142D7
:10240000FADB019A0099895C0029F5D101990498B9
:102410001A9B471A21463846199A00F097FA0199F3
:10242000401945180BE04FE02CE113E04EE0009816
:1024300000990078491C00911A9A199990470198BF
:10244000401E0190401CF2D1214638461A9B199A31
:1024500010E137E00A200021009001916002410F55
:10246000022907D0189A01CA1892C2179446032964
:1024700008D00AE01898C01DC108C90005C9189104
:10248000944607E000B2C2179446042902D140B234
:10249000C1178C4600226146944506DA0A4600219F
:1024A000404291418C462D2102E0210504D52B218B
:1024B0006A461173012103E0E10701D02021F7E70B
:1024C000029155E00A200AE0102008E01020009058
:1024D0000021042004430191082703E00820002183
:1024E000019100906002410F022907D0189A01CA99
:1024F000189200229446032908D008E01898C01DBD
:10250000C108C90005C91891944603E080B20429A6
:1025100000D1C0B200210291210729D5119970295B
:1025200006D0009A1021019B4A401A4305D00EE0C4
:1025300040216A461173012108E06146014306D03B
:1025400030216A4611731199517302210291009A48
:102550000821019B4A401A430AD16146014301D137
:10256000610705D530216A46117301217F1E029152
:102570001199582904D035A10E910DA90D910DE0A6
:1025800037A1F9E76146019B009AFDF7C5FD0E9B57
:102590008C469B5C0D9A521E0D921370614601434E
:1025A000F0D10D9805A9081A20300190600703D5D5
:1025B00001200004844300E001270198874201DDE7
:1025C000381A00E00020019900904118029809187B
:1025D0000498401A0490E00306D421461A9B199AE5
:1025E000049800F0B3F94519002706E003A81A9AE9
:1025F000C05D199990476D1C7F1C02988742F5DBDE
:10260000E0030CD521461A9B199A049800F09EF914
:10261000451904E01A9A3020199990476D1C0099C9
:10262000481E00900029F5DC08E00D980D9900780F
:10263000491C0D911A9A199990476D1C0199481ED1
:1026400001900029F1DC63E10928010030313233C7
:1026500034353637383961626364656600000000DE
:1026600030313233343536373839414243444546C8
:102670000000000000F05AF94519761C3078002857
:1026800000D0E2E528461BB0F0BD600700D4062765
:102690001898C01DC108C90048680A680831C30FEE
:1026A000DB071891190001D09CA108E0210501D594
:1026B0009BA104E0E10701D09AA100E09AA14300A8
:1026C00011985B08109165280CD006DC452809D0CC
:1026D00046281DD0472841D141E0662818D06728F8
:1026E0003CD13CE00021112F01DB112000E0781CDF
:1026F0000191009008A911A8FFF7E8FC1399059132
:102700000021119A15927F1C12980197009150E0B8
:102710000120C00703900120019008A9009711A88B
:10272000FFF7D4FC139A149905920022119B009292
:1027300012981593059A0192002901D0104602E0E3
:10274000791C40180190381A01D5019804E04042E4
:10275000401E0090781C0190C01B029043E0012FA6
:1027600000DA01270021112F01DD112000E0384699
:102770000191009008A911A8FFF7A8FC13990591F1
:10278000119A0021129815920091019721070CD4FB
:102790000599B94201DB019900E00191012904DDAD
:1027A000159A491E515C302906D0B84201DA011D44
:1027B00005DA0121029115E00199491EEDE7002893
:1027C00005DC0099411800910199091A03E0019A6A
:1027D000411C914200DD01910099401A401C029079
:1027E0000120C0070390200706D402990198814276
:1027F00002DB0020C043029000206946C87707AF83
:10280000012103980337C907884224D00220119080
:102810002B201290039800280CDA404203902D20C0
:10282000129007E00A210398FDF760FC30317F1E0B
:10283000039039701199481E11900029F2DC039819
:102840000028EFD1791E12980870307820210840B6
:102850004530BF1E387006A8C01BC01D03901098DD
:102860000078002800D00120019941180298C01773
:102870000918039809180498401A401E0490E003B0
:1028800006D421461A9B199A049800F05FF845195E
:1028900010980078002803D01A9A199990476D1C57
:1028A000E00324D521461A9B199A049800F04EF8AB
:1028B00045191CE00098002807DB0099059888421C
:1028C00003DD1598405C199901E0199930201A9A96
:1028D000904700986D1C401C00900298401E02908A
:1028E000002804D11A9A2E20199990476D1C01993D
:1028F000481E01900029DDDC05E038781A9A7F1C1B
:10290000199990476D1C0399481E03900029F4DC27
:1029100021461A9B199A0498ACE600002D0000008D
:102920002B0000002000000000000000F8B5044665
:1029300000251E461746880404D405E039462020A9
:10294000B0476D1C641EF9D52846F8BDFFB5044696
:10295000002581B01E46C80301D5302700E020279E
:10296000880404D505E038460399B0476D1C641E01
:10297000F9D5284605B0F0BD0A68531C0B601070ED
:102980007047000013B5044B012269460348FEF767
:10299000DFFC00981CBD0000FFFF000018010020B4
:1029A000FDF72AFFFEF753FEFEF744FDFEF70CFE8F
:1029B000FEF728FEFEF7A0FDFEF7D2FD7D24E40021
:1029C0002046FDF75FFE06A0FFF7F2FA0FA0FFF723
:1029D000CDFA19A0FFF7A8FA22A0FFF70BFBEFE74B
:1029E0005468697320697320746865207369676E21
:1029F000616C2066726F6D2073657269616C207006
:102A00006F727420342E0D0A000000005468697340
:102A100020697320746865207369676E616C206635
:102A2000726F6D2073657269616C20706F727420B3
:102A3000332E0D0A0000000054686973206973206A
:102A4000746865207369676E616C2066726F6D20B3
:102A500073657269616C20706F727420322E0D0A7A
:102A60000000000054686973206973207468652051
:102A70007369676E616C2066726F6D207365726931
:102A8000616C20706F727420312E0D0A00000000FE
:102A90000000000000000000000000000000000036
:102AA0000000000000000000000000000000000026
:102AB000010000000200000003000000040000000C
:102AC00006000000070000000800000009000000E8
:102AD00000000000000000000000000000000000F6
:102AE00001000000020000000300000004000000DC
:102AF000102B00080000002014000000AC2000088B
:102B0000242B00081400002034070000BC2000081B
:102B10000400000001000000000000000024F40098
:042B200000000000B1
:04000005080000BD32
:00000001FF
